:100000000C9451000C94BB050C94DF050C94030672
:100010000C946E000C946E000C946E000C946E00A8
:100020000C946E000C946E000C946E000C946E0098
:100030000C946E000C946E000C946E000C946E0088
:100040000C9427060C946E000C946E000C946E00B9
:100050000C946E00CD02D702E102EB02F502FF0222
:10006000090320032D033A034703540361036E037E
:100070007B03940398039C03A003A403A803AC038D
:10008000B0030604130420042D043A044704540466
:10009000610477047C04810486048B049004950435
:1000A0009A0411241FBECFE5D8E0DEBFCDBF10E01B
:1000B000A0E6B0E0E8E8F2E102C005900D92AC3AAB
:1000C000B107D9F720E0ACEAB0E001C01D92A53D30
:1000D000B207E1F70E94AA000C9442090C940000B8
:1000E0008091AC0081110AC063EB70E086E690E07D
:1000F0000E94AC0481E08093AC000895813051F4FB
:1001000061EB70E086E690E00E94AC0482E08093B0
:10011000AC000895823051F46FEA70E086E690E01A
:100120000E94AC0483E08093AC000895833041F4D6
:100130006DEA70E086E690E00E94AC041092AC009C
:10014000089586E690E00E94B70280E690E00E9463
:10015000A70108950E94A1002CE730E046E061E08D
:1001600080E690E00E9447022FEF87EA91E6215057
:1001700080409040E1F700C0000061E080E690E040
:100180000E9487018FE39FE10197F1F700C0000013
:1001900025E830E041E061E080E690E00E9447021F
:1001A0002DE830E041E062E080E690E00E94470206
:1001B00025E930E041E063E080E690E00E944702FC
:1001C0002DE930E041E064E080E690E00E944702E3
:1001D0008091AC00811106C060E086E690E00E944C
:1001E000E60417C0813031F461E086E690E00E94B9
:1001F000E6040FC0823031F462E086E690E00E94AF
:10020000E60407C0833029F463E086E690E00E94AC
:10021000E60463EC70E08091B3009091B4000E941A
:10022000640269EC70E08091B1009091B2000E948C
:1002300064026DEB70E08091AF009091B0000E947D
:1002400064026FEC70E08091AD009091AE000E946E
:10025000640223EC30E048E061E080E690E00E9438
:10026000470229EC30E048E062E080E690E00E943E
:1002700047022DEB30E048E063E080E690E00E942A
:1002800047022FEC30E048E064E080E690E00E9416
:1002900047029ECF0F931F93CF930097E1F0C62F95
:1002A0008C01617002960E944605C1FB662760F9C9
:1002B000C80103960E944605C2FB662760F9C80183
:1002C00004960E944605C3FB662760F9C80105969F
:1002D0000E94460501C080E0CF911F910F910895C3
:1002E000CF93DF93009779F0EC01219661E0CE0186
:1002F0000E9446058AE18A95F1F700C060E0CE01D0
:100300000E94460501C080E0DF91CF9108951F93C0
:10031000CF93DF930097B1F0162FEC0160E00E94BD
:100320004605612F62956F70CE010E944A01CE0191
:100330000E947001612FCE010E944A01CE010E94ED
:10034000700101C080E0DF91CF911F9108951F934C
:10035000CF93DF93009709F450C0EC0101960E94FF
:100360008605CE010E94860510E008C0812F90E02E
:1003700002968C0F9D1F0E9486051F5F1430B0F3FC
:100380002FEF89EF90E0215080409040E1F700C0CE
:10039000000068E3CE010E9487018FE19EE401978F
:1003A000F1F700C0000068E3CE010E9487019FEFD3
:1003B00022E587E0915020408040E1F700C0000036
:1003C00068E3CE010E94870161E0CE010E948701AF
:1003D00062E0CE010E94870166E0CE010E948701A3
:1003E0006CE0CE010E94870168E2CE010E94870185
:1003F00060E8CE010E94870101C080E0DF91CF91CB
:100400001F9108950097F9F0623071F018F461308F
:1004100031F01BC0633069F0643081F016C06FE7C3
:10042000640F0E94870108956FEB640F0E9487019B
:10043000089563E9640F0E948701089563ED640FD6
:100440000E948701089580E0089581E008951F9338
:10045000CF93DF930097B1F0162FEC0161E00E947B
:100460004605612F62956F70CE010E944A01CE0150
:100470000E947001612FCE010E944A01CE010E94AC
:10048000700101C080E0DF91CF911F9108950F931B
:100490001F93CF93DF938C01E901009769F02097B8
:1004A00069F00E94020204C02196C8010E9427023E
:1004B00068816111F9CF03C080E001C080E0DF9165
:1004C000CF911F910F910895EF92FF920F931F9379
:1004D000CF93DF9300D000D000D0CDB7DEB7FE01C0
:1004E000319626E0DF011D922A95E9F76115710525
:1004F00081F18B01E92EF82E45E050E060E270E0DA
:10050000C8010E945106F8011582EF92FF9285EA18
:1005100090E09F938F93CE0101969F938F930E94BB
:1005200058060F900F900F900F900F900F9080E053
:1005300005C0F801E80FF11D90838F5FE1E0F0E066
:10054000EC0FFD1FE80FF11D90819111F2CF81E0BA
:1005500001C080E026960FB6F894DEBF0FBECDBF77
:10056000DF91CF911F910F91FF90EF900895DC01E3
:10057000892B09F43BC186B18F7786B91296EC912D
:1005800012974E2F50E0FA013197E730F10508F04D
:1005900049C0E65DFF4F0C944B0686B1816086B979
:1005A00086B18D7F86B986B18B7F86B93BC086B117
:1005B0008E7F86B986B1826086B986B18B7F86B917
:1005C00031C086B1816086B986B1826086B986B154
:1005D0008B7F86B927C086B18E7F86B986B18D7F25
:1005E00086B986B1846086B91DC086B1816086B93E
:1005F00086B18D7F86B986B1846086B913C086B115
:100600008E7F86B986B1826086B986B1846086B9EC
:1006100009C086B1816086B986B1826086B986B12B
:10062000846086B91396EC9113974E2F50E04830B2
:10063000510508F06CC0FA01EF5CFF4F0C944B06BB
:1006400087B18E7F87B987B18D7F87B987B18B7F5F
:1006500087B987B1877F87B95AC087B1816087B969
:1006600087B18D7F87B987B18B7F87B987B1877F46
:1006700087B94DC087B18E7F87B987B1826087B94E
:1006800087B18B7F87B987B1877F87B940C087B132
:10069000816087B987B1826087B987B18B7F87B95D
:1006A00087B1877F87B933C087B18E7F87B987B11C
:1006B0008D7F87B987B1846087B987B1877F87B914
:1006C00026C087B1816087B987B18D7F87B987B12F
:1006D000846087B987B1877F87B919C087B18E7F5A
:1006E00087B987B1826087B987B1846087B987B1DC
:1006F000877F87B90CC087B1816087B987B1826075
:1007000087B987B1846087B987B1877F87B9139626
:10071000EC9113974E2F50E04830510520F5FA0127
:10072000E75CFF4F0C944B068AB38E7F8ABB1BC0DD
:100730008AB38D7F8ABB17C08AB38B7F8ABB13C0F5
:100740008AB3877F8ABB0FC08AB38F7E8ABB0BC0F8
:100750008AB38F7D8ABB07C08AB38F7B8ABB03C0F5
:100760008AB38F778ABB86B1886086B986B180618B
:1007700086B978948D919C9111979093B60080934F
:10078000B50015968C911597982F917080FF04C035
:1007900087B18F7D87B909C0911104C087B180628C
:1007A00087B903C087B18F7D87B914968C9181304A
:1007B00059F018F0833079F014C087B18F7787B97A
:1007C00087B18F7B87B90DC087B18F7787B987B124
:1007D000806487B906C087B1806887B987B18064B3
:1007E00087B986B1806886B981E0089580E0089570
:1007F000892B09F4A4C0862F90E08830910508F079
:100800006CC0FC01EF5BFF4F0C944B0687B18E7FF1
:1008100087B987B18D7F87B987B18B7F87B987B15A
:10082000877F87B95AC087B1816087B987B18D7FCB
:1008300087B987B18B7F87B987B1877F87B94DC06B
:1008400087B18E7F87B987B1826087B987B18B7F87
:1008500087B987B1877F87B940C087B1816087B981
:1008600087B1826087B987B18B7F87B987B1877F6E
:1008700087B933C087B18E7F87B987B18D7F87B93C
:1008800087B1846087B987B1877F87B926C087B170
:10089000816087B987B18D7F87B987B1846087B957
:1008A00087B1877F87B919C087B18E7F87B987B134
:1008B000826087B987B1846087B987B1877F87B93C
:1008C0000CC087B1816087B987B1826087B987B171
:1008D000846087B987B1877F87B9862F90E0883099
:1008E000910578F5FC01E75BFF4F0C944B068AB34A
:1008F0008E7F8ABB81E008958AB38D7F8ABB81E0B9
:1009000008958AB38B7F8ABB81E008958AB3877F7D
:100910008ABB81E008958AB38F7E8ABB81E0089507
:100920008AB38F7D8ABB81E008958AB38F7B8ABBAF
:1009300081E008958AB38F778ABB81E0089580E0D3
:10094000089581E00895892B29F086B1806486B9E5
:1009500081E0089580E008950097A1F16115710587
:1009600099F1FC018581982F917080FF0BC024B113
:1009700085B190E0982F8827822BFB01918380839B
:1009800081E00895911113C085B190E0982F8827D8
:1009900024B1822B082E892F000C881F990B000C84
:1009A000881F991FFB019183808381E0089524B102
:1009B00085B190E0982F8827822BFB01918380835B
:1009C00081E0089580E0089580E00895CF93DF935B
:1009D000009761F0EC0186B1806186B9CE010E947A
:1009E000F803CE010E94A30481E001C080E0DF9102
:1009F000CF91089586B1806186B9E091B500F091FC
:100A0000B600309709F009950895FC01892BD1F1C2
:100A100020812695269526952770808186FB99272B
:100A200090F986FF18C0913079F5E82FE770F0E073
:100A3000EE0FFF1FEC58FF4F0190F081E02D308149
:100A400081E090E002C0880F991F2A95E2F7832B7E
:100A5000808381E00895E081E770F0E0EE0FFF1FF2
:100A6000EC58FF4F0190F081E02D308181E090E063
:100A700002C0880F991F2A95E2F78095832380830F
:100A800081E0089580E0089580E008950097D1F115
:100A9000DC012C912695269526952770662319F062
:100AA0006130C9F031C0DC01EC91E770F0E0EE0F8D
:100AB000FF1FE459FF4F0190F081E02D308181E06C
:100AC00090E002C0880F991F2A95E2F78095832352
:100AD000808381E00895DC01EC91E770F0E0EE0F97
:100AE000FF1FE459FF4F0190F081E02D308181E03C
:100AF00090E002C0880F991F2A95E2F7832B80832C
:100B000081E0089580E0089580E00895CF93DF9319
:100B1000009761F0EC010E940505688167FB66277C
:100B200060F9CE010E94460581E001C080E0DF91BE
:100B3000CF9108958AB78F7B8ABFE091BB00F09177
:100B4000BC00309709F0099508958AB78F778ABF5E
:100B5000E091B900F091BA00309709F00995089535
:100B60008AB78F7D8ABFE091B700F091B8003097C7
:100B700009F0099508951F920F920FB60F92112454
:100B80002F933F934F935F936F937F938F939F9395
:100B9000AF93BF93EF93FF930E949A05FF91EF915C
:100BA000BF91AF919F918F917F916F915F914F9185
:100BB0003F912F910F900FBE0F901F9018951F928D
:100BC0000F920FB60F9211242F933F934F935F9381
:100BD0006F937F938F939F93AF93BF93EF93FF9305
:100BE0000E94A505FF91EF91BF91AF919F918F91C9
:100BF0007F916F915F914F913F912F910F900FBE19
:100C00000F901F9018951F920F920FB60F921124FC
:100C10002F933F934F935F936F937F938F939F9304
:100C2000AF93BF93EF93FF930E94B005FF91EF91B5
:100C3000BF91AF919F918F917F916F915F914F91F4
:100C40003F912F910F900FBE0F901F9018951F92FC
:100C50000F920FB60F9211242F933F934F935F93F0
:100C60006F937F938F939F93AF93BF93EF93FF9374
:100C70000E94FA04FF91EF91BF91AF919F918F91E4
:100C80007F916F915F914F913F912F910F900FBE88
:100C90000F901F901895EE0FFF1F0590F491E02D17
:100CA0000994DC0101C06D9341505040E0F7089574
:100CB000AEE0B0E0EEE5F6E00C9419090D891E896E
:100CC00086E08C831A8309838FEF9FE79E838D8351
:100CD000AE01475E5F4F6F89788DCE0101960E940D
:100CE0007A06EF81F885E00FF11F10822E96E4E07E
:100CF0000C943509ABE0B0E0E0E8F6E00C940B09A9
:100D00006C017B018A01FC0117821682838181FFBD
:100D1000CCC1CE0101963C01F6019381F70193FD10
:100D2000859193FF81917F01882309F4BAC18532AF
:100D300039F493FD859193FF81917F01853229F4E8
:100D4000B60190E00E947108E7CF912C212C312C44
:100D5000FFE1F315D8F08B3279F038F4803279F076
:100D60008332A1F4232D20611DC08D3261F08033C8
:100D700069F4232D216016C0832D8260382EE32D67
:100D8000E4603E2E2AC0F32DF8601DC037FC2DC054
:100D900020ED280F2A3040F08E32B9F436FC81C1A4
:100DA000232D2064322E19C036FE06C08AE0989E9C
:100DB000200D1124922E11C0EAE02E9E200D112448
:100DC000222EF32DF0623F2E08C08C3621F4832DA5
:100DD0008068382E02C0883641F4F70193FD859172
:100DE00093FF81917F018111B3CF982F9F7D9554FF
:100DF000933028F40C5F1F4F9FE399830DC0833617
:100E000031F0833771F0833509F059C021C0F80102
:100E1000808189830E5F1F4F88248394912C530116
:100E200013C02801F2E04F0E511CF801A080B180E0
:100E300036FE03C0692D70E002C06FEF7FEFC50181
:100E40000E9466084C018201F32DFF773F2E16C0E9
:100E5000280122E0420E511CF801A080B18036FE2C
:100E600003C0692D70E002C06FEF7FEFC5010E94E3
:100E70005B084C01F32DF0683F2E820133FC1BC050
:100E8000822D90E088169906B0F4B60180E290E0D9
:100E90000E9471082A94F4CFF50137FC859137FE42
:100EA00081915F01B60190E00E94710821102A949F
:100EB00021E0821A91088114910471F7E8C0843608
:100EC00011F0893641F5F80137FE07C06081718164
:100ED000828193810C5F1F4F08C060817181072E52
:100EE000000C880B990B0E5F1F4FF32DFF763F2EE2
:100EF00097FF09C090958095709561957F4F8F4FB2
:100F00009F4FF0683F2E2AE030E0A3010E94AD0819
:100F1000882E861845C0853731F4232D2F7EB22EBA
:100F20002AE030E025C0932D997FB92E8F36C1F08D
:100F300018F4883579F0B5C0803719F0883721F07A
:100F4000B0C0E92FE061BE2EB4FE0DC0FB2DF460F1
:100F5000BF2E09C034FE0AC0292F2660B22E06C05B
:100F600028E030E005C020E130E002C020E132E0BE
:100F7000F801B7FE07C060817181828193810C5FA7
:100F80001F4F06C06081718180E090E00E5F1F4FAF
:100F9000A3010E94AD08882E8618FB2DFF773F2EF7
:100FA00036FE0DC0232D2E7FA22E891458F434FE58
:100FB0000BC032FC09C0832D8E7EA82E05C0B82C34
:100FC000A32C03C0B82C01C0B92CA4FE0FC0FE0195
:100FD000E80DF11D8081803321F49A2D997EA92E90
:100FE00009C0A2FE06C0B394B39404C08A2D8678CB
:100FF00009F0B394A3FC11C0A0FE06C0B21488F49B
:10100000280C922C9B180EC0B21460F4B60180E23A
:1010100090E00E947108B394F7CFB21418F42B1823
:1010200002C0982C212CA4FE10C0B60180E390E0F1
:101030000E947108A2FE17C0A1FC03C088E790E0DF
:1010400002C088E590E0B6010CC08A2D867859F080
:10105000A1FE02C08BE201C080E2A7FC8DE2B601D6
:1010600090E00E947108891438F4B60180E390E0A2
:101070000E9471089A94F7CF8A94F301E80DF11D4C
:101080008081B60190E00E9471088110F5CF222086
:1010900009F442CEB60180E290E00E9471082A94E1
:1010A000F6CFF6018681978102C08FEF9FEF2B96D6
:1010B000E2E10C942709FC01059061507040011099
:1010C000D8F7809590958E0F9F1F0895FC01615071
:1010D000704001900110D8F7809590958E0F9F1F5A
:1010E00008950F931F93CF93DF93FB01238121FD7D
:1010F00003C08FEF9FEF2CC022FF16C0468157819F
:10110000248135814217530744F4A081B1819D01A8
:101110002F5F3F4F318320838C93268137812F5F50
:101120003F4F3783268314C08B01EC01FB01008401
:10113000F185E02D0995892BE1F6D80116968D9160
:101140009C911797019617969C938E931697CE01B4
:10115000DF91CF911F910F910895FA01AA272830AE
:1011600051F1203181F1E8946F936E7F6E5F7F4F74
:101170008F4F9F4FAF4FB1E03ED0B4E03CD0670FF0
:10118000781F891F9A1FA11D680F791F8A1F911D43
:10119000A11D6A0F711D811D911DA11D20D009F493
:1011A00068943F912AE0269F11243019305D3193D5
:1011B000DEF6CF010895462F4770405D4193B3E0BE
:1011C0000FD0C9F7F6CF462F4F70405D4A3318F065
:1011D000495D31FD4052419302D0A9F7EACFB4E016
:1011E000A6959795879577956795BA95C9F70097CE
:1011F0006105710508959B01AC010A2E069457956F
:10120000479537952795BA95C9F7620F731F841FC5
:10121000951FA01D08952F923F924F925F926F925B
:101220007F928F929F92AF92BF92CF92DF92EF9276
:10123000FF920F931F93CF93DF93CDB7DEB7CA1BF7
:10124000DB0B0FB6F894DEBF0FBECDBF09942A8822
:10125000398848885F846E847D848C849B84AA84CA
:10126000B984C884DF80EE80FD800C811B81AA8157
:10127000B981CE0FD11D0FB6F894DEBF0FBECDBF22
:08128000ED010895F894FFCF81
:10128800424A525A626A7000070001013B00380066
:10129800350032003A003700340031004144432021
:1012A8005445535400504F5431203A2000504F5465
:1012B80032203A2000504F5433203A2000504F54E7
:0C12C80034203A2000256900256C7500D8
:00000001FF
