:100000000C942A000C9447000C9447000C94470071
:100010000C9447000C9447000C9447000C94470044
:100020000C9447000C9447000C9447000C94470034
:100030000C9447000C9447000C9447000C94470024
:100040000C9447000C9447000C9447000C94470014
:100050000C94470011241FBECFE5D8E0DEBFCDBF12
:1000600010E0A0E6B0E0E0EBF3E002C005900D92F6
:10007000A837B107D9F720E0A8E7B0E001C01D928A
:10008000A937B207E1F70E9456000C94D6010C94F0
:10009000000083E690E00E94A70082E690E00E94C4
:1000A000BF0081E690E00E94BF0008950E944900D1
:1000B0001092780041C060916000CDEC6C9F612D82
:1000C000112466956695669583E690E00E94C600C9
:1000D00082E690E00E94ED008FE19EE40197F1F747
:1000E00000C0000082E690E00E941701909160003D
:1000F0009C9F612D1124669566956695660F862FE7
:10010000880F880F680F961B692F83E690E00E9486
:10011000C60081E690E00E94ED008FE19EE4019729
:10012000F1F700C0000081E690E00E941701809185
:1001300078008F5F8093780080917800833308F493
:10014000BACF809160008F5F80936000B1CFCF9372
:10015000DF93009781F0EC010E94C201CE0101966D
:100160000E94C201CE0102960E94C201CE010396F6
:100170000E94C20101C080E0DF91CF9108950097F5
:1001800019F00E94C201089580E008950F931F9313
:10019000CF93009711F46A30D8F4C62F8C016170A8
:1001A0000E948201C1FB662760F9C80101960E9486
:1001B0008201C2FB662760F9C80102960E94820193
:1001C000C3FB662760F9C80103960E94820101C043
:1001D00080E0CF911F910F910895CF93DF931F92ED
:1001E000CDB7DEB70097F1F0FC012081922F977018
:1001F0008981887F892B922F9695969596959770F1
:10020000990F990F990F877C892B27FB222720F9BB
:10021000806420FB87F9898361E0CE0101960E940A
:10022000820101C080E00F90DF91CF910895CF93BC
:10023000DF931F92CDB7DEB70097F1F0FC0120816C
:10024000922F97708981887F892B922F969596950A
:1002500096959770990F990F990F877C892B27FB9B
:10026000222720F9806420FB87F9898360E0CE0192
:1002700001960E94820101C080E00F90DF91CF9132
:100280000895FC01892BD1F120812695269526958C
:100290002770808186FB992790F986FF18C09130DE
:1002A00079F5E82FE770F0E0EE0FFF1FE059FF4F00
:1002B0000190F081E02D308181E090E002C0880F54
:1002C000991F2A95E2F7832B808381E00895E081CE
:1002D000E770F0E0EE0FFF1FE059FF4F0190F08153
:1002E000E02D308181E090E002C0880F991F2A95AF
:1002F000E2F780958323808381E0089580E008956C
:1003000080E008950097D1F1DC012C912695269587
:1003100026952770662319F06130C9F031C0DC01E1
:10032000EC91E770F0E0EE0FFF1FE859FF4F0190EE
:10033000F081E02D308181E090E002C0880F991FAC
:100340002A95E2F780958323808381E00895DC017C
:10035000EC91E770F0E0EE0FFF1FE859FF4F0190BE
:10036000F081E02D308181E090E002C0880F991F7C
:100370002A95E2F7832B808381E0089580E0089539
:1003800080E00895CF93DF93009761F0EC010E9425
:100390004101688167FB662760F9CE010E948201F6
:1003A00081E001C080E0DF91CF910895F894FFCF04
:1003B000174B43424A525A003B0038003500320086
:0803C0003A003700340031005F
:00000001FF
