:100000000C942A000C942C030C9450030C9474034D
:100010000C9447000C9447000C9494040C94B8047E
:100020000C94DC040C9400050C944C040C947004A7
:100030000C9428040C94E0030C9447000C94BC032B
:100040000C9498030C9447000C9447000C940404FF
:100050000C94470011241FBECFE5D8E0DEBFCDBF12
:1000600010E0A0E6B0E0EAE0FDE002C005900D92ED
:10007000A238B107D9F720E0A2E8B0E001C01D9294
:10008000A03BB207E1F70E945C000C9483060C943D
:10009000000080E690E00E948D000E94070164E06D
:1000A00082E00E94A20186E690E00E94500281E672
:1000B00090E00E943B0208950E944900ECEAF0E0C3
:1000C00010828AEA818385E582838091820091E0B3
:1000D000980F909382008383CF010E94E5010E94D4
:1000E00037018111FCCF0E943F018093AB00811149
:1000F00005C080E690E00E94B50006C0813021F482
:1001000080E690E00E94DE000E9480018FE39CE97F
:100110000197F1F700C00000D1CFCF93DF931F927A
:10012000CDB7DEB70097E1F0FC012081922F9770E8
:100130008981887F892B922F92959F709770990F54
:10014000990F990F877C892B27FB222720F9806440
:1001500020FB87F98983CE0101960E94EC0201C041
:1001600080E00F90DF91CF910895CF93DF931F929E
:10017000CDB7DEB70097E9F0FC012081922F977090
:100180008981887F892B922F92959F709770990F04
:10019000990F990F877C892B27FB222720F98064F0
:1001A00020FB87F9898361E0CE0101960E94AC02B1
:1001B00001C080E00F90DF91CF910895CF93DF933E
:1001C0001F92CDB7DEB70097E9F0FC012081922F96
:1001D00097708981887F892B922F92959F70977055
:1001E000990F990F990F877C892B27FB222720F9DC
:1001F000806420FB87F9898360E0CE0101960E942C
:10020000AC0201C080E00F90DF91CF9108958DE6A0
:1002100090E00E94CE058CE690E00E946B028BE697
:1002200090E00E946B0260E08CE690E00E94AC02DD
:1002300061E08BE690E00E94AC0208956FB9779B75
:10024000FECF8FB10895CF9360E08BE690E00E94DF
:10025000AC026FEF8DE690E00E941E01C82F61E0B6
:100260008BE690E00E94AC028C2FCF9108950E9403
:100270002301807311F080E0089581E008950E94C9
:10028000230185FD04C084FF04C081E0089580E05F
:1002900008958FEF08950F931F93CF93DF938C01F1
:1002A000D62FC0E009C0F801EC0FF11D60818DE68A
:1002B00090E00E941E01CF5FCD17A8F3DF91CF9190
:1002C0001F910F910895CF93DF93C82FD62F60E031
:1002D0008BE690E00E94AC026C2F6F7160628DE63D
:1002E00090E00E941E016D2F8DE690E00E941E019D
:1002F00061E08BE690E00E94AC02DF91CF9108951F
:1003000060E08BE690E00E94AC0262EE8DE690E049
:100310000E941E0161E08BE690E00E94AC0260E763
:1003200087E00E94630160E08CE690E00E94AC02EE
:100330006BE080E00E94630161E08CE690E00E9447
:10034000AC02089560938300682F85E00E946301EA
:100350006091830081E10E94630160E082E10E947C
:10036000630160E083E10E94630160E084E10E9438
:10037000630160E085E10E94630160E086E10E9424
:10038000630166E086E00E94630168E080E00E940D
:10039000630163E081E00E94630163E082E00E9408
:1003A00063016FE484E00E94630160E08CE10E94DD
:1003B00063010E948001089560E787E00E94630165
:1003C0006AE080E00E9463010895CF93DF93EC011F
:1003D00060E08CE690E00E94AC020E94DC0160E0EC
:1003E0008BE690E00E94AC0261EE8DE690E00E9408
:1003F0001E0161E08BE690E00E94AC0260E08BE6BB
:1004000090E00E94AC0260EA8DE690E00E941E013E
:1004100060918300CE010E944B0161E08BE690E089
:100420000E94AC0261E08CE690E00E94AC02DF9199
:10043000CF9108950F931F93CF93DF93C82F8B0114
:10044000D42F60E08BE690E00E94AC026C2F6F71BD
:1004500060628DE690E00E941E016D2FC8010E942F
:100460004B0161E08BE690E00E94AC02DF91CF91FE
:100470001F910F910895CF93DF93EC0160E08CE61C
:1004800090E00E94AC0245E0BE018BE00E941A029F
:1004900061E08CE690E00E94AC02DF91CF9108957C
:1004A000CF93DF93EC0145E0BC018AE00E941A0281
:1004B00045E0BE0180E10E941A02DF91CF910895CC
:1004C00086B1806186B9E0918400F0918500309713
:1004D00009F009950895FC01892BD1F12081269519
:1004E000269526952770808186FB992790F986FFAF
:1004F00018C0913079F5E82FE770F0E0EE0FFF1F9C
:10050000E758FF4F0190F081E02D308181E090E0CD
:1005100002C0880F991F2A95E2F7832B808381E020
:100520000895E081E770F0E0EE0FFF1FE758FF4FFE
:100530000190F081E02D308181E090E002C0880FD1
:10054000991F2A95E2F780958323808381E008959F
:1005500080E0089580E008950097D1F1DC012C91AE
:100560002695269526952770662319F06130C9F0E7
:1005700031C0DC01EC91E770F0E0EE0FFF1FEF58A7
:10058000FF4F0190F081E02D308181E090E002C0CA
:10059000880F991F2A95E2F780958323808381E055
:1005A0000895DC01EC91E770F0E0EE0FFF1FEF58CB
:1005B000FF4F0190F081E02D308181E090E002C09A
:1005C000880F991F2A95E2F7832B808381E0089595
:1005D00080E0089580E00895CF93DF93009761F065
:1005E000EC010E946B02688167FB662760F9CE010F
:1005F0000E94AC0281E001C080E0DF91CF910895BC
:1006000086B7806886BFE0918600F09187003097BA
:1006100009F0099508958AB78F7B8ABFE0918C0015
:10062000F0918D00309709F0099508958AB78F777A
:100630008ABFE0918A00F0918B00309709F009950C
:1006400008958AB78F7D8ABFE0918800F091890074
:10065000309709F0099508951F920F920FB60F92E7
:1006600011242F933F934F935F936F937F938F93B7
:100670009F93AF93BF93EF93FF930E940B03FF9160
:10068000EF91BF91AF919F918F917F916F915F910A
:100690004F913F912F910F900FBE0F901F90189583
:1006A0001F920F920FB60F9211242F933F934F93E7
:1006B0005F936F937F938F939F93AF93BF93EF93CA
:1006C000FF930E941603FF91EF91BF91AF919F910D
:1006D0008F917F916F915F914F913F912F910F90EB
:1006E0000FBE0F901F9018951F920F920FB60F928A
:1006F00011242F933F934F935F936F937F938F9327
:100700009F93AF93BF93EF93FF930E942103FF91B9
:10071000EF91BF91AF919F918F917F916F915F9179
:100720004F913F912F910F900FBE0F901F901895F2
:100730001F920F920FB60F9211242F933F934F9356
:100740005F936F937F938F939F93AF93BF93EF9339
:10075000FF930E946002FF91EF91BF91AF919F9133
:100760008F917F916F915F914F913F912F910F905A
:100770000FBE0F901F9018951F920F920FB60F92F9
:1007800011242F933F934F935F936F937F938F9396
:100790009F93AF93BF93EF93FF930E946206FF91E5
:1007A000EF91BF91AF919F918F917F916F915F91E9
:1007B0004F913F912F910F900FBE0F901F90189562
:1007C0001F920F920FB60F9211242F933F934F93C6
:1007D0005F936F937F938F939F93AF93BF93EF93A9
:1007E000FF930E946D06FF91EF91BF91AF919F9192
:1007F0008F917F916F915F914F913F912F910F90CA
:100800000FBE0F901F9018951F920F920FB60F9268
:1008100011242F933F934F935F936F937F938F9305
:100820009F93AF93BF93EF93FF930E940003FF91B9
:10083000EF91BF91AF919F918F917F916F915F9158
:100840004F913F912F910F900FBE0F901F901895D1
:100850001F920F920FB60F9211242F933F934F9335
:100860005F936F937F938F939F93AF93BF93EF9318
:10087000FF930E94F405FF91EF91BF91AF919F917B
:100880008F917F916F915F914F913F912F910F9039
:100890000FBE0F901F9018951F920F920FB60F92D8
:1008A00011242F933F934F935F936F937F938F9375
:1008B0009F93AF93BF93EF93FF930E94FF05FF9128
:1008C000EF91BF91AF919F918F917F916F915F91C8
:1008D0004F913F912F910F900FBE0F901F90189541
:1008E0001F920F920FB60F9211242F933F934F93A5
:1008F0005F936F937F938F939F93AF93BF93EF9388
:10090000FF930E940A06FF91EF91BF91AF919F91D3
:100910008F917F916F915F914F913F912F910F90A8
:100920000FBE0F901F9018951F920F920FB60F9247
:1009300011242F933F934F935F936F937F938F93E4
:100940009F93AF93BF93EF93FF930E941806FF917D
:10095000EF91BF91AF919F918F917F916F915F9137
:100960004F913F912F910F900FBE0F901F901895B0
:100970001F920F920FB60F9211242F933F934F9314
:100980005F936F937F938F939F93AF93BF93EF93F7
:10099000FF930E942D06FF91EF91BF91AF919F9120
:1009A0008F917F916F915F914F913F912F910F9018
:1009B0000FBE0F901F9018951F920F920FB60F92B7
:1009C00011242F933F934F935F936F937F938F9354
:1009D0009F93AF93BF93EF93FF930E944206FF91C3
:1009E000EF91BF91AF919F918F917F916F915F91A7
:1009F0004F913F912F910F900FBE0F901F90189520
:100A00001F920F920FB60F9211242F933F934F9383
:100A10005F936F937F938F939F93AF93BF93EF9366
:100A2000FF930E945706FF91EF91BF91AF919F9165
:100A30008F917F916F915F914F913F912F910F9087
:100A40000FBE0F901F901895FC01808191819093AB
:100A50008F0080938E008DB180688DB98EB18F77B5
:100A60008EB978940895FC01838186958695869544
:100A70008370823089F0B8F4813039F08DB1877F8E
:100A80008DB98DB18B7F8DB908958DB1877F8DB96B
:100A90008DB184608DB908958DB188608DB98DB1A7
:100AA0008B7F8DB908958DB188608DB98DB18460CB
:100AB0008DB908950F931F93CF93DF9300D000D08B
:100AC000CDB7DEB78C0181E6898389E68A8381E32D
:100AD0008B8389E78C83CE0101960E946B02CE0145
:100AE00002960E946B02CE0103960E946B02CE0119
:100AF00004960E946B028DB180618DB9F8018381EB
:100B000087708230C9F028F4882341F0813069F081
:100B10002AC08330C1F08430E9F025C08DB18E7FCA
:100B20008DB98DB18D7F8DB91EC08DB181608DB9AC
:100B30008DB18D7F8DB917C08DB18E7F8DB98DB17F
:100B400082608DB910C08DB181608DB98DB1826028
:100B50008DB909C08DB18E7F8DB98DB18D7F8DB965
:100B60008EB181608EB90F900F900F900F90DF9132
:100B7000CF911F910F910895CF93DF931F92CDB71F
:100B8000DEB781E78983CE0101960E946B028DB1A9
:100B90008F7E8DB90F90DF91CF910895CF93DF9322
:100BA0000097F1F0EC018DB18F7B8DB98A81813096
:100BB00021F4CE010E945A0505C0811103C0CE0167
:100BC0000E94BC05CE010E9433058B8185FF03C0C6
:100BD000CE010E9424058DB180648DB981E001C0F1
:100BE00080E0DF91CF9108958EB18F778EB9E0913B
:100BF0008E00F0918F00309709F00995089588B71D
:100C0000826088BFE0919300F0919400309709F0E2
:100C10000995089588B7816088BF8091900082BF50
:100C2000E0919100F0919200309709F009950895B4
:100C300088B7806288BF8091990090919A0097BD93
:100C40008091990090919A0086BDE091A100F09169
:100C5000A200309709F00995089588B7806188BF90
:100C600080919700909198009BBD80919700909102
:100C700098008ABDE0919F00F091A000309709F0A4
:100C80000995089588B7886088BF809195009091F4
:100C9000960099BD809195009091960088BDE09155
:100CA0009D00F0919E00309709F00995089588B74E
:100CB000846088BFE0919B00F0919C00309709F020
:100CC000099508958AB18F7B8AB9E091A900F091C6
:100CD000AA00309709F009950895E091A700F091D6
:100CE000A800309709F00995E091A500F091A600C1
:100CF000309709F00995E091A300F091A400309796
:0A0D000009F009950895F894FFCF5B
:100D0A0002E7E7E7E7E7E7E7E7E7E7E149000001A6
:100D1A00043B003800350032003A00370034003115
:020D2A000000C7
:00000001FF
