:100000000C942A000C9423030C9447030C946B0368
:100010000C9447000C9447000C948B040C94AF0490
:100020000C94D3040C94F7040C9443040C946704CC
:100030000C941F040C94D7030C9447000C94B30346
:100040000C948F030C9447000C9447000C94FB0312
:100050000C94470011241FBECFE5D8E0DEBFCDBF12
:1000600010E0A0E6B0E0E8E5FBE002C005900D92EC
:10007000AE37B107D9F720E0AEE7B0E001C01D927E
:10008000AC3AB207E1F70E945C000C94AA050C940C
:10009000000080E690E00E948D000E943B0164E039
:1000A00082E00E949F0186E690E00E94470281E67E
:1000B00090E00E94320208950E944900E8EAF0E0D0
:1000C00010828AEA818385E5828380917E0091E0B7
:1000D000980F90937E008383CF010E94E2010E94DB
:1000E0001E018111FCCF0E9426018093A70081117F
:1000F00005C080E690E00E94B50006C0813021F482
:1001000080E690E00E94DE000E947F018FE39CE980
:100110000197F1F700C00000D1CFCF93DF931F927A
:10012000CDB7DEB70097E1F0FC012081922F9770E8
:100130008981887F892B922F92959F709770990F54
:10014000990F990F877C892B27FB222720F9806440
:1001500020FB87F98983CE0101960E94E30201C04A
:1001600080E00F90DF91CF910895CF93DF931F929E
:10017000CDB7DEB70097E9F0FC012081922F977090
:100180008981887F892B922F92959F709770990F04
:10019000990F990F877C892B27FB222720F98064F0
:1001A00020FB87F9898361E0CE0101960E94A302BA
:1001B00001C080E00F90DF91CF910895CF93DF933E
:1001C0001F92CDB7DEB70097E9F0FC012081922F96
:1001D00097708981887F892B922F92959F70977055
:1001E000990F990F990F877C892B27FB222720F9DC
:1001F000806420FB87F9898360E0CE0101960E942C
:10020000A30201C080E00F90DF91CF9108958FB9D4
:10021000779BFECF8FB10895CF9360E08BE690E09F
:100220000E94A3028FEF0E940701C82F61E08BE6B6
:1002300090E00E94A3028C2FCF9108950E940C01A0
:10024000807311F080E0089581E008950E940C0110
:1002500085FD04C084FF04C081E0089580E0089516
:100260008FEF089587B3806B87BB87B38F7B87BB86
:1002700081E58DB9089561E08BE690E00E94A302CC
:100280000E9432018CE690E00E9462028BE690E0D0
:100290000E94620260E08CE690E00E94A302089552
:1002A0000F931F93CF93DF938C01D62FC0E007C02D
:1002B000F801EC0FF11D80810E940701CF5FCD177F
:1002C000B8F3DF91CF911F910F910895CF93DF93F2
:1002D000C82FD62F60E08BE690E00E94A3028C2FFF
:1002E0008F7180620E9407018D2F0E94070161E0DB
:1002F0008BE690E00E94A302DF91CF91089560E029
:100300008BE690E00E94A30282EE0E94070161E06A
:100310008BE690E00E94A30260E787E00E946601FE
:1003200060E08CE690E00E94A3026BE080E00E9417
:10033000660161E08CE690E00E94A302089560935C
:100340007F00682F85E00E94660160917F0081E157
:100350000E94660160E082E10E94660160E083E144
:100360000E94660160E084E10E94660160E085E130
:100370000E94660160E086E10E94660166E086E018
:100380000E94660168E080E00E94660163E081E00F
:100390000E94660163E082E00E9466016FE484E0EF
:1003A0000E94660160E08CE10E9466010E947F016C
:1003B000089560E787E00E9466016AE080E00E949D
:1003C00066010895CF93DF93EC0160E08CE690E046
:1003D0000E94A3020E94D90160E08BE690E00E9497
:1003E000A30281EE0E94070161E08BE690E00E948B
:1003F000A30260E08BE690E00E94A30280EA0E94E4
:10040000070160917F00CE010E94500161E08BE600
:1004100090E00E94A30261E08CE690E00E94A302BB
:10042000DF91CF9108950F931F93CF93DF93C82F40
:100430008B01D42F60E08BE690E00E94A3028C2F0A
:100440008F7180620E9407016D2FC8010E945001C8
:1004500061E08BE690E00E94A302DF91CF911F91B3
:100460000F910895CF93DF93EC0160E08CE690E06C
:100470000E94A30245E0BE018BE00E94130261E0EE
:100480008CE690E00E94A302DF91CF910895CF9374
:10049000DF93EC0145E0BC018AE00E94130245E0D5
:1004A000BE0180E10E941302DF91CF91089586B1D1
:1004B000806186B9E0918000F0918100309709F069
:1004C00009950895FC01892BD1F120812695269567
:1004D00026952770808186FB992790F986FF18C0A2
:1004E000913079F5E82FE770F0E0EE0FFF1FEB5841
:1004F000FF4F0190F081E02D308181E090E002C05B
:10050000880F991F2A95E2F7832B808381E0089555
:10051000E081E770F0E0EE0FFF1FEB58FF4F019016
:10052000F081E02D308181E090E002C0880F991FBA
:100530002A95E2F780958323808381E0089580E007
:10054000089580E008950097D1F1DC012C91269563
:10055000269526952770662319F06130C9F031C0C1
:10056000DC01EC91E770F0E0EE0FFF1FE359FF4F65
:100570000190F081E02D308181E090E002C0880F91
:10058000991F2A95E2F780958323808381E008955F
:10059000DC01EC91E770F0E0EE0FFF1FE359FF4F35
:1005A0000190F081E02D308181E090E002C0880F61
:1005B000991F2A95E2F7832B808381E0089580E0DC
:1005C000089580E00895CF93DF93009761F0EC01E8
:1005D0000E946202688167FB662760F9CE010E9473
:1005E000A30281E001C080E0DF91CF91089586B73A
:1005F000806886BFE0918200F0918300309709F017
:10060000099508958AB78F7B8ABFE0918800F091A1
:100610008900309709F0099508958AB78F778ABFC6
:10062000E0918600F0918700309709F009950895D0
:100630008AB78F7D8ABFE0918400F0918500309762
:1006400009F0099508951F920F920FB60F92112489
:100650002F933F934F935F936F937F938F939F93CA
:10066000AF93BF93EF93FF930E940203FF91EF912B
:10067000BF91AF919F918F917F916F915F914F91BA
:100680003F912F910F900FBE0F901F9018951F92C2
:100690000F920FB60F9211242F933F934F935F93B6
:1006A0006F937F938F939F93AF93BF93EF93FF933A
:1006B0000E940D03FF91EF91BF91AF919F918F9198
:1006C0007F916F915F914F913F912F910F900FBE4E
:1006D0000F901F9018951F920F920FB60F92112432
:1006E0002F933F934F935F936F937F938F939F933A
:1006F000AF93BF93EF93FF930E941803FF91EF9185
:10070000BF91AF919F918F917F916F915F914F9129
:100710003F912F910F900FBE0F901F9018951F9231
:100720000F920FB60F9211242F933F934F935F9325
:100730006F937F938F939F93AF93BF93EF93FF93A9
:100740000E945702FF91EF91BF91AF919F918F91BE
:100750007F916F915F914F913F912F910F900FBEBD
:100760000F901F9018951F920F920FB60F921124A1
:100770002F933F934F935F936F937F938F939F93A9
:10078000AF93BF93EF93FF930E948905FF91EF9181
:10079000BF91AF919F918F917F916F915F914F9199
:1007A0003F912F910F900FBE0F901F9018951F92A1
:1007B0000F920FB60F9211242F933F934F935F9395
:1007C0006F937F938F939F93AF93BF93EF93FF9319
:1007D0000E949405FF91EF91BF91AF919F918F91EE
:1007E0007F916F915F914F913F912F910F900FBE2D
:1007F0000F901F9018951F920F920FB60F92112411
:100800002F933F934F935F936F937F938F939F9318
:10081000AF93BF93EF93FF930E94F702FF91EF9185
:10082000BF91AF919F918F917F916F915F914F9108
:100830003F912F910F900FBE0F901F9018951F9210
:100840000F920FB60F9211242F933F934F935F9304
:100850006F937F938F939F93AF93BF93EF93FF9388
:100860000E941B05FF91EF91BF91AF919F918F91D6
:100870007F916F915F914F913F912F910F900FBE9C
:100880000F901F9018951F920F920FB60F92112480
:100890002F933F934F935F936F937F938F939F9388
:1008A000AF93BF93EF93FF930E942605FF91EF91C3
:1008B000BF91AF919F918F917F916F915F914F9178
:1008C0003F912F910F900FBE0F901F9018951F9280
:1008D0000F920FB60F9211242F933F934F935F9374
:1008E0006F937F938F939F93AF93BF93EF93FF93F8
:1008F0000E943105FF91EF91BF91AF919F918F9130
:100900007F916F915F914F913F912F910F900FBE0B
:100910000F901F9018951F920F920FB60F921124EF
:100920002F933F934F935F936F937F938F939F93F7
:10093000AF93BF93EF93FF930E943F05FF91EF9119
:10094000BF91AF919F918F917F916F915F914F91E7
:100950003F912F910F900FBE0F901F9018951F92EF
:100960000F920FB60F9211242F933F934F935F93E3
:100970006F937F938F939F93AF93BF93EF93FF9367
:100980000E945405FF91EF91BF91AF919F918F917C
:100990007F916F915F914F913F912F910F900FBE7B
:1009A0000F901F9018951F920F920FB60F9211245F
:1009B0002F933F934F935F936F937F938F939F9367
:1009C000AF93BF93EF93FF930E946905FF91EF915F
:1009D000BF91AF919F918F917F916F915F914F9157
:1009E0003F912F910F900FBE0F901F9018951F925F
:1009F0000F920FB60F9211242F933F934F935F9353
:100A00006F937F938F939F93AF93BF93EF93FF93D6
:100A10000E947E05FF91EF91BF91AF919F918F91C1
:100A20007F916F915F914F913F912F910F900FBEEA
:100A30000F901F9018958EB18F778EB9E0918A0034
:100A4000F0918B00309709F00995089588B782607E
:100A500088BFE0918F00F0919000309709F00995E0
:100A6000089588B7816088BF80918C0082BFE09133
:100A70008D00F0918E00309709F00995089588B7A0
:100A8000806288BF809195009091960097BD80917B
:100A900095009091960086BDE0919D00F0919E009A
:100AA000309709F00995089588B7806188BF8091D3
:100AB0009300909194009BBD80919300909194003D
:100AC0008ABDE0919B00F0919C00309709F0099558
:100AD000089588B7886088BF8091910090919200B6
:100AE00099BD809191009091920088BDE09199000C
:100AF000F0919A00309709F00995089588B78460BD
:100B000088BFE0919700F0919800309709F009951F
:100B100008958AB18F7B8AB9E091A500F091A60073
:100B2000309709F009950895E091A300F091A40091
:100B3000309709F00995E091A100F091A20030975B
:100B400009F00995E0919F00F091A000309709F01D
:080B500009950895F894FFCF08
:100B580002E7E7E7E7E7E7E7E7E7E7E1493B0038E8
:0E0B680000350032003A003700340031000042
:00000001FF
