:100000000C942A000C94D8010C94FC010C9420024E
:100010000C9447000C9447000C9447000C94470044
:100020000C9447000C9447000C9447000C94470034
:100030000C94B0020C948C020C9447000C9468024F
:100040000C9444020C9447000C9447000C94470015
:100050000C94470011241FBECFE5D8E0DEBFCDBF12
:1000600010E0A0E6B0E0EAEFF6E002C005900D92E5
:10007000A237B107D9F720E0A2E7B0E001C01D9296
:10008000A338B207E1F70E9495000C947B030C940F
:10009000000082E890E00E9446038091820083364F
:1000A00039F481E690E00E94C50082E60E94530385
:1000B00080918200843639F481E690E00E94EE005F
:1000C00081E60E9453030895CF93DF93CDB7DEB747
:1000D00060970FB6F894DEBF0FBECDBF1D828E8134
:1000E00081608E838F8181608F831E861D86188A32
:1000F0001F8689E490E09C878B871A861986CE013B
:1001000001960E94320360960FB6F894DEBF0FBED0
:10011000CDBFDF91CF91089581E690E00E949D00D0
:1001200080E690E00E949D0008950E948C000E944D
:10013000640081E60E945303FFCFCF93DF931F92A9
:10014000CDB7DEB70097E1F0FC012081922F9770C8
:100150008981887F892B922F92959F709770990F34
:10016000990F990F877C892B27FB222720F9806420
:1001700020FB87F98983CE0101960E94A30101C06B
:1001800080E00F90DF91CF910895CF93DF931F927E
:10019000CDB7DEB70097E9F0FC012081922F977070
:1001A0008981887F892B922F92959F709770990FE4
:1001B000990F990F877C892B27FB222720F98064D0
:1001C00020FB87F9898361E0CE0101960E946301DB
:1001D00001C080E00F90DF91CF910895CF93DF931E
:1001E0001F92CDB7DEB70097E9F0FC012081922F76
:1001F00097708981887F892B922F92959F70977035
:10020000990F990F990F877C892B27FB222720F9BB
:10021000806420FB87F9898360E0CE0101960E940B
:10022000630101C080E00F90DF91CF91089586B106
:10023000806186B9E0917200F0917300309709F007
:1002400009950895FC01892BD1F1208126952695E9
:1002500026952770808186FB992790F986FF18C024
:10026000913079F5E82FE770F0E0EE0FFF1FE659C7
:10027000FF4F0190F081E02D308181E090E002C0DD
:10028000880F991F2A95E2F7832B808381E00895D8
:10029000E081E770F0E0EE0FFF1FE659FF4F01909D
:1002A000F081E02D308181E090E002C0880F991F3D
:1002B0002A95E2F780958323808381E0089580E08A
:1002C000089580E008950097D1F1DC012C912695E6
:1002D000269526952770662319F06130C9F031C044
:1002E000DC01EC91E770F0E0EE0FFF1FEE59FF4FDD
:1002F0000190F081E02D308181E090E002C0880F14
:10030000991F2A95E2F780958323808381E00895E1
:10031000DC01EC91E770F0E0EE0FFF1FEE59FF4FAC
:100320000190F081E02D308181E090E002C0880FE3
:10033000991F2A95E2F7832B808381E0089580E05E
:10034000089580E00895CF93DF93009761F0EC016A
:100350000E942201688167FB662760F9CE010E9436
:10036000630181E001C080E0DF91CF9108958AB7F9
:100370008F7B8ABFE0917800F0917900309709F087
:10038000099508958AB78F778ABFE0917600F0913A
:100390007700309709F0099508958AB78F7D8ABF55
:1003A000E0917400F0917500309709F00995089577
:1003B0001F920F920FB60F9211242F933F934F93DA
:1003C0005F936F937F938F939F93AF93BF93EF93BD
:1003D000FF930E94B701FF91EF91BF91AF919F9161
:1003E0008F917F916F915F914F913F912F910F90DE
:1003F0000FBE0F901F9018951F920F920FB60F927D
:1004000011242F933F934F935F936F937F938F9319
:100410009F93AF93BF93EF93FF930E94C201FF910D
:10042000EF91BF91AF919F918F917F916F915F916C
:100430004F913F912F910F900FBE0F901F901895E5
:100440001F920F920FB60F9211242F933F934F9349
:100450005F936F937F938F939F93AF93BF93EF932C
:10046000FF930E94CD01FF91EF91BF91AF919F91BA
:100470008F917F916F915F914F913F912F910F904D
:100480000FBE0F901F9018951F920F920FB60F92EC
:1004900011242F933F934F935F936F937F938F9389
:1004A0009F93AF93BF93EF93FF930E941701FF9128
:1004B000EF91BF91AF919F918F917F916F915F91DC
:1004C0004F913F912F910F900FBE0F901F90189555
:1004D0001F920F920FB60F9211242F933F934F93B9
:1004E0005F936F937F938F939F93AF93BF93EF939C
:1004F000FF930E945A03FF91EF91BF91AF919F919B
:100500008F917F916F915F914F913F912F910F90BC
:100510000FBE0F901F9018951F920F920FB60F925B
:1005200011242F933F934F935F936F937F938F93F8
:100530009F93AF93BF93EF93FF930E946503FF9147
:10054000EF91BF91AF919F918F917F916F915F914B
:100550004F913F912F910F900FBE0F901F901895C4
:100560001F920F920FB60F9211242F933F934F9328
:100570005F936F937F938F939F93AF93BF93EF930B
:10058000FF930E94D402FF91EF91BF91AF919F9191
:100590008F917F916F915F914F913F912F910F902C
:1005A0000FBE0F901F9018958EB18F778EB908955A
:1005B000FC018AB188608AB9808591859093810019
:1005C000809380008581982F917080FF05C08AB14B
:1005D00080648AB9789405C0911103C08AB18F7B79
:1005E0008AB985818E70863049F480B5826080BD7D
:1005F00080B5846080BD80B5846080BD0895FC01B5
:100600008AB180618AB98285938590937F008093B7
:100610007E008485958590937D0080937C008685FF
:10062000978590937B0080937A008681982F9170B4
:1006300080FF05C08AB180688AB9789405C091119D
:1006400003C08AB18F778AB986818E70863049F46B
:1006500080B5826080BD80B5846080BD80B58460D7
:1006600080BD0895CF93DF93009761F0EC0183E3A1
:1006700089B910BCCE010E94D802CE010E94FF02AF
:1006800081E001C080E0DF91CF910895009739F0BB
:100690005F9B07C02CB1FC01208381E0089580E0BE
:1006A000089580E008955D9BFECF9AB190649AB959
:1006B0008CB908958AB18F7B8AB9E0918000F0915E
:1006C0008100309709F009950895E0917E00F0913E
:1006D0007F00309709F00995E0917C00F0917D0052
:1006E000309709F00995E0917A00F0917B003097FE
:0A06F00009F009950895F894FFCF72
:1006FA0012023B003800350032003A00370034005D
:02070A003100BC
:00000001FF
