:100000000C942A000C941A020C943E020C94620286
:100010000C9447000C9447000C9447000C94470044
:100020000C9447000C9447000C9447000C94470034
:100030000C94F2020C94CE020C9447000C94AA0289
:100040000C9486020C9447000C9447000C94160301
:100050000C94470011241FBECFE5D8E0DEBFCDBF12
:1000600010E0A0E6B0E0E4E1F7E002C005900D92F8
:10007000A036B107D9F720E0A0E6B0E001C01D929C
:10008000A138B207E1F70E94CF000C9488030C94CA
:100090000000E0E6F0E081E0878340E85AE166E0B6
:1000A00070E0428353836483758386831286118252
:1000B0001082CF010E94FB0008951F93CF93DF931E
:1000C000C82FD62F142F0E94490080E690E00E948E
:1000D00061018130E1F46C2F80E690E00E9495018F
:1000E0008130A9F46D2F80E690E00E94C10181303B
:1000F00071F4612F80E690E00E94C101C82F813029
:1001000031F480E690E00E948B018C2F00C0DF91DB
:10011000CF911F9108950F931F93CF93DF93C82F13
:10012000D62F8A010E94490080E690E00E9461017A
:10013000813051F56C2F80E690E00E94950181306E
:1001400019F56D2F80E690E00E94C1018130E1F445
:1001500080E690E00E9476018130B1F46C2F6160FE
:1001600080E690E00E94AB01813071F4B80180E636
:1001700090E00E94D401C82F813031F480E690E0F5
:100180000E948B018C2F00C0DF91CF911F910F91A6
:1001900008950E945D0008950E948B00089545E037
:1001A00060E086EA0E94C9008FE39CE90197F1F7BD
:1001B00000C000004FE750E060E086EA0E94CC00FB
:1001C000FFCF86B1806186B9E0916B00F0916C0041
:1001D000309709F009950895FC01808191819093F1
:1001E0006E0080936D0086B7816086BF86B7806899
:1001F00086BF78940895CF93DF93EC0186B78B7F09
:1002000086BF8E81813009F048C08F81843081F0B3
:1002100018F4813031F020C0803189F08034B1F0A1
:100220001BC081B18E7F81B981B18D7F81B914C02E
:1002300081B1816081B981B18D7F81B90DC081B1FA
:100240008E7F81B981B1826081B906C081B1816040
:1002500081B981B1826081B92A813B814C815D8104
:1002600060E074E284EF90E00E946603CA01B90185
:1002700060517109810991092F8130E0220F331FEC
:10028000032E000C440B550B0E94660320B9888591
:10029000882341F08E7F82B905C0811103C0898512
:1002A0008E7F82B98A85813019F4CE010E94EC00DC
:1002B00086B7806486BF86B7846086BFDF91CF91A2
:1002C0000895892B79F086B7806886BF86B78062EB
:1002D00086BF06B607FEFDCF81B1887F883021F446
:1002E00081E0089580E0089580E00895892B79F0F9
:1002F00086B7806886BF86B7806286BF06B607FE6F
:10030000FDCF81B1887F803121F481E0089580E0C4
:10031000089580E0089586B7806886BF86B78061BB
:1003200086BF06B604FCFDCF0895892B81F063B922
:1003300086B78F7D86BF86B7806886BF06B607FE04
:10034000FDCF81B1887F883121F481E0089580E07C
:10035000089580E00895892B81F063B986B78F7D79
:1003600086BF86B7806886BF06B607FEFDCF81B11F
:10037000887F803421F481E0089580E0089580E052
:100380000895892B69F063B986B7806886BF06B681
:1003900007FEFDCF81B1887F883221F481E0089586
:1003A00080E0089580E00895892B91F06115710532
:1003B00089F086B7806886BF06B607FEFDCF81B19B
:1003C000887F803549F483B1FB01808381E0089503
:1003D00080E0089580E0089580E0089586B7806801
:1003E00086BFE0916D00F0916E00309709F009959D
:1003F00008958AB78F7B8ABFE0917300F0917400F3
:10040000309709F0099508958AB78F778ABFE091F0
:100410007100F0917200309709F0099508958AB73C
:100420008F7D8ABFE0916F00F0917000309709F0E6
:10043000099508951F920F920FB60F9211242F93D2
:100440003F934F935F936F937F938F939F93AF935C
:10045000BF93EF93FF930E94F901FF91EF91BF913A
:10046000AF919F918F917F916F915F914F913F914C
:100470002F910F900FBE0F901F9018951F920F9203
:100480000FB60F9211242F933F934F935F936F9367
:100490007F938F939F93AF93BF93EF93FF930E94AC
:1004A0000402FF91EF91BF91AF919F918F917F9146
:1004B0006F915F914F913F912F910F900FBE0F90D1
:1004C0001F9018951F920F920FB60F9211242F9321
:1004D0003F934F935F936F937F938F939F93AF93CC
:1004E000BF93EF93FF930E940F02FF91EF91BF9193
:1004F000AF919F918F917F916F915F914F913F91BC
:100500002F910F900FBE0F901F9018951F920F9272
:100510000FB60F9211242F933F934F935F936F93D6
:100520007F938F939F93AF93BF93EF93FF930E941B
:10053000E100FF91EF91BF91AF919F918F917F91DA
:100540006F915F914F913F912F910F900FBE0F9040
:100550001F9018951F920F920FB60F9211242F9390
:100560003F934F935F936F937F938F939F93AF933B
:10057000BF93EF93FF930E944503FF91EF91BF91CB
:10058000AF919F918F917F916F915F914F913F912B
:100590002F910F900FBE0F901F9018951F920F92E2
:1005A0000FB60F9211242F933F934F935F936F9346
:1005B0007F938F939F93AF93BF93EF93FF930E948B
:1005C0005003FF91EF91BF91AF919F918F917F91D8
:1005D0006F915F914F913F912F910F900FBE0F90B0
:1005E0001F9018951F920F920FB60F9211242F9300
:1005F0003F934F935F936F937F938F939F93AF93AB
:10060000BF93EF93FF930E943A03FF91EF91BF9145
:10061000AF919F918F917F916F915F914F913F919A
:100620002F910F900FBE0F901F9018951F920F9251
:100630000FB60F9211242F933F934F935F936F93B5
:100640007F938F939F93AF93BF93EF93FF930E94FA
:10065000EE01FF91EF91BF91AF919F918F917F91AB
:100660006F915F914F913F912F910F900FBE0F901F
:100670001F9018958EB18F778EB9E0917500F0912B
:100680007600309709F0099508958AB18F7B8AB971
:10069000E0917D00F0917E00309709F00995089572
:1006A000E0917B00F0917C00309709F00995E09192
:1006B0007900F0917A00309709F00995E091770080
:1006C000F0917800309709F009950895A1E21A2E6B
:1006D000AA1BBB1BFD010DC0AA1FBB1FEE1FFF1FE6
:1006E000A217B307E407F50720F0A21BB30BE40B36
:1006F000F50B661F771F881F991F1A9469F760957D
:100700007095809590959B01AC01BD01CF01089536
:04071000F894FFCF8B
:00000001FF
