:100000000C942A000C940E030C9432030C945603A7
:100010000C9447000C9447000C9476040C949A04BA
:100020000C94BE040C94E2040C942E040C94520420
:100030000C940A040C94C2030C9447000C949E0385
:100040000C947A030C9447000C9447000C94E6033C
:100050000C94470011241FBECFE5D8E0DEBFCDBF12
:1000600010E0A0E6B0E0EEECFCE002C005900D92DE
:10007000AC37B107D9F720E0ACE7B0E001C01D9282
:10008000A43CB207E1F70E945A000C9465060C9458
:10009000000080E690E00E9472000E94C30060E2CF
:1000A00082E00E94910181E690E00E942D020E9470
:1000B0006F0108950E9449000E94FE01882341F0CB
:1000C00084EA90E00E94500180E690E00E949A004D
:1000D0002FEF89E698E1215080409040E1F700C081
:1000E0000000EACFCF93DF931F92CDB7DEB7009722
:1000F000E1F0FC012081922F97708981887F892B04
:10010000922F92959F709770990F990F990F877CF6
:10011000892B27FB222720F9806420FB87F989831C
:10012000CE0101960E94CE0201C080E00F90DF91C7
:10013000CF910895CF93DF931F92CDB7DEB700978D
:10014000E9F0FC012081922F97708981887F892BAB
:10015000922F92959F709770990F990F990F877CA6
:10016000892B27FB222720F9806420FB87F98983CC
:1001700061E0CE0101960E948E0201C080E00F90E6
:10018000DF91CF91089588E690E00E94B00587E660
:1001900090E00E944D0286E690E00E944D0260E0F1
:1001A00087E690E00E948E0261E086E690E00E9481
:1001B0008E0208956FB9779BFECF8FB10895CF93CC
:1001C00060E086E690E00E948E026FEF88E690E0A5
:1001D0000E94DA00C82F61E086E690E00E948E025D
:1001E0008C2FCF910895CF92DF92EF92FF920F93D1
:1001F0001F93CF93DF937C016B01D42FC0E010C01D
:100200008C2F90E08601080F191FF701E80FF91FE6
:10021000608188E690E00E94DA00F8018083CF5F79
:10022000CD1770F3DF91CF911F910F91FF90EF9059
:10023000DF90CF9008950F931F93CF93DF938C019E
:10024000D62FC0E009C0F801EC0FF11D608188E6EF
:1002500090E00E94DA00CF5FCD17A8F3DF91CF9135
:100260001F910F910895CF93DF93C82FD62F60E091
:1002700086E690E00E948E026C2F6F71606288E6C5
:1002800090E00E94DA006D2F88E690E00E94DA008C
:1002900061E086E690E00E948E02DF91CF910895A2
:1002A000CF93DF93EC0160E086E690E00E948E023F
:1002B00061E688E690E00E94DA0040917C00BE0191
:1002C000CE010E94F30061E086E690E00E948E027B
:1002D00060E487E00E943301DF91CF91089560E0F0
:1002E00086E690E00E948E0262EE88E690E00E9430
:1002F000DA0061E086E690E00E948E0260E787E027
:100300000E94330160E087E690E00E948E026BE07D
:1003100080E00E94330161E087E690E00E948E0257
:10032000089560937C00682F85E00E9433016091FE
:100330007C0081E10E94330160E082E10E94330190
:1003400060E083E10E94330160E084E10E943301B8
:1003500060E085E10E94330160E086E10E943301A4
:1003600066E086E00E94330168E080E00E9433018D
:1003700063E081E00E94330163E082E00E94330188
:100380006FE484E00E94330160E08CE10E9433015D
:100390000E946F0108950F931F93CF93DF93C82F8F
:1003A0008B01D42F60E086E690E00E948E026C2FD5
:1003B0006F7188E690E00E94DA004D2FB801C80105
:1003C0000E94F30061E086E690E00E948E02DF91D9
:1003D000CF911F910F910895CF93DF931F92CDB7C7
:1003E000DEB741E0BE016F5F7F4F87E10E94CB0126
:1003F000898181700F90DF91CF9108950E94DF0075
:1004000086FD07C00E94EC0191E0882319F090E07E
:1004100001C091E0892F08950F931F93CF93DF932D
:10042000C82F8B01D42F60E086E690E00E948E02F8
:100430006C2F6F71606288E690E00E94DA006D2F89
:10044000C8010E941B0161E086E690E00E948E02D6
:10045000DF91CF911F910F910895CF93DF93EC011E
:1004600060E087E690E00E948E0245E0BE018BE0EE
:100470000E940C0261E087E690E00E948E02DF910C
:10048000CF91089586B1806186B9E0917D00F091A9
:100490007E00309709F009950895FC01892BD1F170
:1004A00020812695269526952770808186FB9927A1
:1004B00090F986FF18C0913079F5E82FE770F0E0E9
:1004C000EE0FFF1FEC58FF4F0190F081E02D3081BF
:1004D00081E090E002C0880F991F2A95E2F7832BF4
:1004E000808381E00895E081E770F0E0EE0FFF1F68
:1004F000EC58FF4F0190F081E02D308181E090E0D9
:1005000002C0880F991F2A95E2F780958323808384
:1005100081E0089580E0089580E008950097D1F18A
:10052000DC012C912695269526952770662319F0D7
:100530006130C9F031C0DC01EC91E770F0E0EE0F02
:10054000FF1FE459FF4F0190F081E02D308181E0E1
:1005500090E002C0880F991F2A95E2F780958323C7
:10056000808381E00895DC01EC91E770F0E0EE0F0C
:10057000FF1FE459FF4F0190F081E02D308181E0B1
:1005800090E002C0880F991F2A95E2F7832B8083A1
:1005900081E0089580E0089580E00895CF93DF938F
:1005A000009761F0EC010E944D02688167FB6627AD
:1005B00060F9CE010E948E0281E001C080E0DF91EF
:1005C000CF91089586B7806886BFE0917F00F09153
:1005D0008000309709F0099508958AB78F7B8ABF0C
:1005E000E0918500F0918600309709F00995089513
:1005F0008AB78F778ABFE0918300F09184003097AB
:1006000009F0099508958AB78F7D8ABFE09181002E
:10061000F0918200309709F0099508951F920F928A
:100620000FB60F9211242F933F934F935F936F93C5
:100630007F938F939F93AF93BF93EF93FF930E940A
:10064000ED02FF91EF91BF91AF919F918F917F91BB
:100650006F915F914F913F912F910F900FBE0F902F
:100660001F9018951F920F920FB60F9211242F937F
:100670003F934F935F936F937F938F939F93AF932A
:10068000BF93EF93FF930E94F802FF91EF91BF9108
:10069000AF919F918F917F916F915F914F913F911A
:1006A0002F910F900FBE0F901F9018951F920F92D1
:1006B0000FB60F9211242F933F934F935F936F9335
:1006C0007F938F939F93AF93BF93EF93FF930E947A
:1006D0000303FF91EF91BF91AF919F918F917F9114
:1006E0006F915F914F913F912F910F900FBE0F909F
:1006F0001F9018951F920F920FB60F9211242F93EF
:100700003F934F935F936F937F938F939F93AF9399
:10071000BF93EF93FF930E944202FF91EF91BF912D
:10072000AF919F918F917F916F915F914F913F9189
:100730002F910F900FBE0F901F9018951F920F9240
:100740000FB60F9211242F933F934F935F936F93A4
:100750007F938F939F93AF93BF93EF93FF930E94E9
:100760004406FF91EF91BF91AF919F918F917F913F
:100770006F915F914F913F912F910F900FBE0F900E
:100780001F9018951F920F920FB60F9211242F935E
:100790003F934F935F936F937F938F939F93AF9309
:1007A000BF93EF93FF930E944F06FF91EF91BF918C
:1007B000AF919F918F917F916F915F914F913F91F9
:1007C0002F910F900FBE0F901F9018951F920F92B0
:1007D0000FB60F9211242F933F934F935F936F9314
:1007E0007F938F939F93AF93BF93EF93FF930E9459
:1007F000E202FF91EF91BF91AF919F918F917F9115
:100800006F915F914F913F912F910F900FBE0F907D
:100810001F9018951F920F920FB60F9211242F93CD
:100820003F934F935F936F937F938F939F93AF9378
:10083000BF93EF93FF930E94D605FF91EF91BF9175
:10084000AF919F918F917F916F915F914F913F9168
:100850002F910F900FBE0F901F9018951F920F921F
:100860000FB60F9211242F933F934F935F936F9383
:100870007F938F939F93AF93BF93EF93FF930E94C8
:10088000E105FF91EF91BF91AF919F918F917F9182
:100890006F915F914F913F912F910F900FBE0F90ED
:1008A0001F9018951F920F920FB60F9211242F933D
:1008B0003F934F935F936F937F938F939F93AF93E8
:1008C000BF93EF93FF930E94EC05FF91EF91BF91CF
:1008D000AF919F918F917F916F915F914F913F91D8
:1008E0002F910F900FBE0F901F9018951F920F928F
:1008F0000FB60F9211242F933F934F935F936F93F3
:100900007F938F939F93AF93BF93EF93FF930E9437
:10091000FA05FF91EF91BF91AF919F918F917F91D8
:100920006F915F914F913F912F910F900FBE0F905C
:100930001F9018951F920F920FB60F9211242F93AC
:100940003F934F935F936F937F938F939F93AF9357
:10095000BF93EF93FF930E940F06FF91EF91BF911A
:10096000AF919F918F917F916F915F914F913F9147
:100970002F910F900FBE0F901F9018951F920F92FE
:100980000FB60F9211242F933F934F935F936F9362
:100990007F938F939F93AF93BF93EF93FF930E94A7
:1009A0002406FF91EF91BF91AF919F918F917F911D
:1009B0006F915F914F913F912F910F900FBE0F90CC
:1009C0001F9018951F920F920FB60F9211242F931C
:1009D0003F934F935F936F937F938F939F93AF93C7
:1009E000BF93EF93FF930E943906FF91EF91BF9160
:1009F000AF919F918F917F916F915F914F913F91B7
:100A00002F910F900FBE0F901F901895FC018081C1
:100A1000918190938800809387008DB180688DB913
:100A20008EB18F778EB978940895FC018381869575
:100A3000869586958370823089F0B8F4813039F0DC
:100A40008DB1877F8DB98DB18B7F8DB908958DB1B3
:100A5000877F8DB98DB184608DB908958DB188601F
:100A60008DB98DB18B7F8DB908958DB188608DB9A9
:100A70008DB184608DB908950F931F93CF93DF9349
:100A800000D000D0CDB7DEB78C0181E6898389E63E
:100A90008A8381E38B8389E78C83CE0101960E9450
:100AA0004D02CE0102960E944D02CE0103960E9495
:100AB0004D02CE0104960E944D028DB180618DB928
:100AC000F801838187708230C9F028F4882341F0CF
:100AD000813069F02AC08330C1F08430E9F025C04C
:100AE0008DB18E7F8DB98DB18D7F8DB91EC08DB1C9
:100AF00081608DB98DB18D7F8DB917C08DB18E7F1D
:100B00008DB98DB182608DB910C08DB181608DB904
:100B10008DB182608DB909C08DB18E7F8DB98DB1D7
:100B20008D7F8DB98EB181608EB90F900F900F902F
:100B30000F90DF91CF911F910F910895CF93DF9385
:100B40001F92CDB7DEB781E78983CE0101960E945F
:100B50004D028DB18F7E8DB90F90DF91CF910895A9
:100B6000CF93DF930097F1F0EC018DB18F7B8DB9BE
:100B70008A81813021F4CE010E943C0505C081119B
:100B800003C0CE010E949E05CE010E9415058B81F7
:100B900085FF03C0CE010E9406058DB180648DB92A
:100BA00081E001C080E0DF91CF9108958EB18F7711
:100BB0008EB9E0918700F0918800309709F009958F
:100BC000089588B7826088BFE0918C00F0918D0015
:100BD000309709F00995089588B7816088BF8091A2
:100BE000890082BFE0918A00F0918B00309709F074
:100BF0000995089588B7806288BF8091920090918E
:100C0000930097BD809192009091930086BDE091F2
:100C10009A00F0919B00309709F00995089588B7E4
:100C2000806188BF80919000909191009BBD8091E0
:100C30009000909191008ABDE0919800F091990008
:100C4000309709F00995089588B7886088BF80912A
:100C50008E0090918F0099BD80918E0090918F00B1
:100C600088BDE0919600F0919700309709F00995C2
:100C7000089588B7846088BFE0919400F091950052
:100C8000309709F0099508958AB18F7B8AB9E09170
:100C9000A200F091A300309709F009950895E09122
:100CA000A000F091A100309709F00995E0919E0015
:100CB000F0919F00309709F00995E0919C00F09128
:0E0CC0009D00309709F009950895F894FFCF34
:100CCE00024E4F444531E149000001043B0038001B
:0C0CDE00350032003A00370034003100CD
:00000001FF
