:100000000C942A000C948A010C94AE010C94D20139
:100010000C9447000C9447000C9447000C94470044
:100020000C9447000C9447000C9447000C94470034
:100030000C9462020C943E020C9447000C941A0239
:100040000C94F6010C9447000C9447000C94860223
:100050000C94470011241FBECFE5D8E0DEBFCDBF12
:1000600010E0A0E6B0E0E4EFF5E002C005900D92EC
:10007000A036B107D9F720E0A0E6B0E001C01D929C
:10008000A038B207E1F70E9464000C94F8020C94C7
:1000900000001F93CF93DF93182FEB0185E790E0CB
:1000A0000E940A01612F85E790E00E942C01BE01A9
:1000B00085E790E00E94420185E790E00E942201DE
:1000C000DF91CF911F910895E5E7F0E01286168247
:1000D00080E68187CF010E94A40064E770E080E69B
:1000E0000E9449002FEF83ED90E321508040904023
:1000F000E1F700C0000064E770E080E60E9449007C
:100100002FEF83ED90E3215080409040E1F700C055
:100110000000E3CF86B1806186B9E0916000F09184
:100120006100309709F009950895FC018081918163
:10013000909363008093620086B7816086BF86B724
:10014000806886BF78940895CF93DF93EC0186B7DB
:100150008B7F86BF8E81813009F048C08F818430CB
:1001600081F018F4813031F020C0803189F0803482
:10017000B1F01BC081B18E7F81B981B18D7F81B912
:1001800014C081B1816081B981B18D7F81B90DC009
:1001900081B18E7F81B981B1826081B906C081B1A0
:1001A000816081B981B1826081B92A813B814C81B2
:1001B0005D8160E074E284EF90E00E94D602CA01A3
:1001C000B90160517109810991092F8130E0220F35
:1001D000331F032E000C440B550B0E94D60220B98E
:1001E0008885882341F08E7F82B905C0811103C0C4
:1001F00089858E7F82B98A85813019F4CE010E946B
:10020000950086B7806486BF86B7846086BFDF911D
:10021000CF910895892B91F086B78F7D86BF86B7E1
:10022000806886BF86B7806286BF06B607FEFDCFB0
:1002300081B1887F883021F481E0089580E00895BD
:1002400080E0089586B7806886BF86B7806186BFE4
:1002500006B604FCFDCF0895892B81F063B986B7FB
:100260008F7D86BF86B7806886BF06B607FEFDCF46
:1002700081B1887F803421F481E0089580E0089581
:1002800080E00895892BA1F06115710599F086B77A
:10029000806886BF06B607FEFDCF83B1FB01808371
:1002A00081B1887F803641F483B1808381E00895F5
:1002B00080E0089580E0089580E0089586B7806822
:1002C00086BFE0916200F0916300309709F00995D4
:1002D00008958AB78F7B8ABFE0916800F09169002A
:1002E000309709F0099508958AB78F778ABFE09112
:1002F0006600F0916700309709F0099508958AB774
:100300008F7D8ABFE0916400F0916500309709F01D
:10031000099508951F920F920FB60F9211242F93F3
:100320003F934F935F936F937F938F939F93AF937D
:10033000BF93EF93FF930E946901FF91EF91BF91EB
:10034000AF919F918F917F916F915F914F913F916D
:100350002F910F900FBE0F901F9018951F920F9224
:100360000FB60F9211242F933F934F935F936F9388
:100370007F938F939F93AF93BF93EF93FF930E94CD
:100380007401FF91EF91BF91AF919F918F917F91F8
:100390006F915F914F913F912F910F900FBE0F90F2
:1003A0001F9018951F920F920FB60F9211242F9342
:1003B0003F934F935F936F937F938F939F93AF93ED
:1003C000BF93EF93FF930E947F01FF91EF91BF9145
:1003D000AF919F918F917F916F915F914F913F91DD
:1003E0002F910F900FBE0F901F9018951F920F9294
:1003F0000FB60F9211242F933F934F935F936F93F8
:100400007F938F939F93AF93BF93EF93FF930E943C
:100410008A00FF91EF91BF91AF919F918F917F9152
:100420006F915F914F913F912F910F900FBE0F9061
:100430001F9018951F920F920FB60F9211242F93B1
:100440003F934F935F936F937F938F939F93AF935C
:10045000BF93EF93FF930E94B502FF91EF91BF917D
:10046000AF919F918F917F916F915F914F913F914C
:100470002F910F900FBE0F901F9018951F920F9203
:100480000FB60F9211242F933F934F935F936F9367
:100490007F938F939F93AF93BF93EF93FF930E94AC
:1004A000C002FF91EF91BF91AF919F918F917F918A
:1004B0006F915F914F913F912F910F900FBE0F90D1
:1004C0001F9018951F920F920FB60F9211242F9321
:1004D0003F934F935F936F937F938F939F93AF93CC
:1004E000BF93EF93FF930E94AA02FF91EF91BF91F8
:1004F000AF919F918F917F916F915F914F913F91BC
:100500002F910F900FBE0F901F9018951F920F9272
:100510000FB60F9211242F933F934F935F936F93D6
:100520007F938F939F93AF93BF93EF93FF930E941B
:100530005E01FF91EF91BF91AF919F918F917F915C
:100540006F915F914F913F912F910F900FBE0F9040
:100550001F9018958EB18F778EB9E0916A00F09157
:100560006B00309709F0099508958AB18F7B8AB99D
:10057000E0917200F0917300309709F009950895A9
:10058000E0917000F0917100309709F00995E091C9
:100590006E00F0916F00309709F00995E0916C00C2
:1005A000F0916D00309709F009950895A1E21A2E97
:1005B000AA1BBB1BFD010DC0AA1FBB1FEE1FFF1F07
:1005C000A217B307E407F50720F0A21BB30BE40B57
:1005D000F50B661F771F881F991F1A9469F760959E
:1005E0007095809590959B01AC01BD01CF01089558
:0405F000F894FFCFAD
:00000001FF
