:100000000C942A000C9496020C94BA020C94DE0212
:100010000C9447000C9447000C9447000C94470044
:100020000C9447000C9447000C9447000C94470034
:100030000C946E030C944A030C9447000C94260312
:100040000C9402030C9447000C9447000C94470056
:100050000C94470011241FBECFE5D8E0DEBFCDBF12
:1000600010E0A0E6B0E0E4EEFEE002C005900D92E4
:10007000A03AB107D9F720E0A0EAB0E001C01D9294
:10008000A83BB207E1F70E9456000C9470070C944D
:10009000000087E690E00E942D0480E690E00E9438
:1000A000FB0086E690E00E94610208950E944900EC
:1000B0002BE730E041E061E080E690E00E949B01A8
:1000C00029E830E041E062E080E690E00E949B0198
:1000D00060E086E690E00E9421026091A10080919C
:1000E000A0006817E1F087E690E00E94530464EBFB
:1000F00070E08091A1000E94B80124EB30E040E163
:1001000061E080E690E00E949B018FE39FE1019710
:10011000F1F700C000008091A1008093A0009FEF44
:1001200029E688E1915020408040E1F700C00000BE
:100130008091A1008F5F8093A100CFCF0F931F9379
:10014000CF930097E1F0C62F8C01617002960E9458
:100150002102C1FB662760F9C80103960E942102B3
:10016000C2FB662760F9C80104960E942102C3FB06
:10017000662760F9C80105960E94210201C080E04F
:10018000CF911F910F910895CF93DF93009779F04E
:10019000EC01219661E0CE010E9421028AE18A955C
:1001A000F1F700C060E0CE010E94210201C080E0B2
:1001B000DF91CF9108951F93CF93DF930097B1F014
:1001C000162FEC0160E00E942102612F62956F7092
:1001D000CE010E949E00CE010E94C400612FCE017C
:1001E0000E949E00CE010E94C40001C080E0DF9109
:1001F000CF911F9108951F93CF93DF93009709F438
:1002000050C0EC0101960E946102CE010E94610281
:1002100010E008C0812F90E002968C0F9D1F0E9475
:1002200061021F5F1430B0F32FEF89EF90E021508F
:1002300080409040E1F700C0000068E3CE010E94DA
:10024000DB008FE19EE40197F1F700C0000068E356
:10025000CE010E94DB009FEF22E587E09150204015
:100260008040E1F700C0000068E3CE010E94DB009F
:1002700061E0CE010E94DB0062E0CE010E94DB0063
:1002800066E0CE010E94DB006CE0CE010E94DB0044
:1002900068E2CE010E94DB0060E8CE010E94DB0034
:1002A00001C080E0DF91CF911F9108950097F9F090
:1002B000623071F018F4613031F01BC0633069F0C6
:1002C000643081F016C06FE7640F0E94DB00089570
:1002D0006FEB640F0E94DB00089563E9640F0E94D6
:1002E000DB00089563ED640F0E94DB00089580E059
:1002F000089581E008951F93CF93DF930097B1F0A5
:10030000162FEC0161E00E942102612F62956F704F
:10031000CE010E949E00CE010E94C400612FCE013A
:100320000E949E00CE010E94C40001C080E0DF91C7
:10033000CF911F9108950F931F93CF93DF938C015B
:10034000E901009769F0209769F00E94560104C006
:100350002196C8010E947B0168816111F9CF03C019
:1003600080E001C080E0DF91CF911F910F9108954F
:1003700061157105C1F0FB0194E0DB011D929A95B6
:10038000E9F71F928F9389E990E09F938F93FF93F2
:100390006F930E9486040F900F900F900F900F9014
:1003A0000F9081E0089580E0089586B1806186B95C
:1003B000E091A200F091A300309709F0099508950B
:1003C000FC01892BD1F12081269526952695277051
:1003D000808186FB992790F986FF18C0913079F5C6
:1003E000E82FE770F0E0EE0FFF1FED58FF4F019090
:1003F000F081E02D308181E090E002C0880F991FEC
:100400002A95E2F7832B808381E00895E081E770ED
:10041000F0E0EE0FFF1FED58FF4F0190F081E02D4F
:10042000308181E090E002C0880F991F2A95E2F7A1
:1004300080958323808381E0089580E0089580E0A3
:1004400008950097D1F1DC012C91269526952695EB
:100450002770662319F06130C9F031C0DC01EC91DE
:10046000E770F0E0EE0FFF1FE559FF4F0190F081BC
:10047000E02D308181E090E002C0880F991F2A951D
:10048000E2F780958323808381E00895DC01EC917D
:10049000E770F0E0EE0FFF1FE559FF4F0190F0818C
:1004A000E02D308181E090E002C0880F991F2A95ED
:1004B000E2F7832B808381E0089580E0089580E057
:1004C0000895CF93DF93009761F0EC010E94E00163
:1004D000688167FB662760F9CE010E94210281E0F6
:1004E00001C080E0DF91CF9108958AB78F7B8ABFEA
:1004F000E091A800F091A900309709F009950895BE
:100500008AB78F778ABFE091A600F091A700309755
:1005100009F0099508958AB78F7D8ABFE091A400FC
:10052000F091A500309709F0099508951F920F9258
:100530000FB60F9211242F933F934F935F936F93B6
:100540007F938F939F93AF93BF93EF93FF930E94FB
:100550007502FF91EF91BF91AF919F918F917F9124
:100560006F915F914F913F912F910F900FBE0F9020
:100570001F9018951F920F920FB60F9211242F9370
:100580003F934F935F936F937F938F939F93AF931B
:10059000BF93EF93FF930E948002FF91EF91BF9171
:1005A000AF919F918F917F916F915F914F913F910B
:1005B0002F910F900FBE0F901F9018951F920F92C2
:1005C0000FB60F9211242F933F934F935F936F9326
:1005D0007F938F939F93AF93BF93EF93FF930E946B
:1005E0008B02FF91EF91BF91AF919F918F917F917E
:1005F0006F915F914F913F912F910F900FBE0F9090
:100600001F9018951F920F920FB60F9211242F93DF
:100610003F934F935F936F937F938F939F93AF938A
:10062000BF93EF93FF930E94D501FF91EF91BF918C
:10063000AF919F918F917F916F915F914F913F917A
:100640002F910F900FBE0F901F9018951F920F9231
:100650000FB60F9211242F933F934F935F936F9395
:100660007F938F939F93AF93BF93EF93FF930E94DA
:100670006504FF91EF91BF91AF919F918F917F9111
:100680006F915F914F913F912F910F900FBE0F90FF
:100690001F9018951F920F920FB60F9211242F934F
:1006A0003F934F935F936F937F938F939F93AF93FA
:1006B000BF93EF93FF930E947004FF91EF91BF915E
:1006C000AF919F918F917F916F915F914F913F91EA
:1006D0002F910F900FBE0F901F9018951F920F92A1
:1006E0000FB60F9211242F933F934F935F936F9305
:1006F0007F938F939F93AF93BF93EF93FF930E944A
:100700005A04FF91EF91BF91AF919F918F917F918B
:100710006F915F914F913F912F910F900FBE0F906E
:100720001F901895FC019DB190689DB99EB19F776F
:100730009EB9808191819093AB008093AA007894B8
:100740000895FC0183818695869586958370823015
:1007500089F0B8F4813039F08DB1877F8DB98DB1D2
:100760008B7F8DB908958DB1877F8DB98DB18460F0
:100770008DB908958DB188608DB98DB18B7F8DB99C
:1007800008958DB188608DB98DB184608DB908955B
:100790000F931F93CF93DF9300D000D0CDB7DEB778
:1007A0008C0181E6898389E68A8381E38B8389E7EB
:1007B0008C83CE0101960E94E001CE0102960E9438
:1007C000E001CE0103960E94E001CE0104960E9452
:1007D000E0018DB180618DB9F8018381877081302E
:1007E00069F028F0823089F08330B1F01BC08DB100
:1007F0008E7F8DB98DB18D7F8DB914C08DB1816023
:100800008DB98DB18D7F8DB90DC08DB18E7F8DB9B4
:100810008DB182608DB906C08DB181608DB98DB109
:1008200082608DB90F900F900F900F90DF91CF9154
:100830001F910F910895CF93DF931F92CDB7DEB72D
:1008400081E78983CE0101960E94E0018DB18F7E00
:100850008DB90F90DF91CF910895CF93DF930097DB
:10086000F1F0EC018DB18F7B8DB98A81813021F45B
:10087000CE010E94C80305C0811103C0CE010E94B1
:100880001B04CE010E94A1038B8185FF03C0CE0112
:100890000E9492038DB180648DB981E001C080E037
:1008A000DF91CF9108956FB9779BFECF8EB18F778F
:1008B0008EB908958EB18F778EB9E091AA00F0912C
:1008C000AB00309709F0099508958AB18F7B8AB9FA
:1008D000E091B200F091B300309709F009950895C6
:1008E000E091B000F091B100309709F00995E091E6
:1008F000AE00F091AF00309709F00995E091AC009F
:10090000F091AD00309709F009950895AEE0B0E0A0
:10091000ECE8F4E00C9447070D891E8986E08C838F
:100920001A8309838FEF9FE79E838D83AE01475E15
:100930005F4F6F89788DCE0101960E94A804EF81E8
:10094000F885E00FF11F10822E96E4E00C94630707
:10095000ABE0B0E0EEEAF4E00C9439076C017B0107
:100960008A01FC0117821682838181FFCCC1CE01EE
:1009700001963C01F6019381F70193FD859193FF68
:1009800081917F01882309F4BAC1853239F493FD3E
:10099000859193FF81917F01853229F4B60190E022
:1009A0000E949F06E7CF912C212C312CFFE1F315FB
:1009B000D8F08B3279F038F4803279F08332A1F4B8
:1009C000232D20611DC08D3261F0803369F4232D09
:1009D000216016C0832D8260382EE32DE4603E2E08
:1009E0002AC0F32DF8601DC037FC2DC020ED280F64
:1009F0002A3040F08E32B9F436FC81C1232D2064B8
:100A0000322E19C036FE06C08AE0989E200D1124B1
:100A1000922E11C0EAE02E9E200D1124222EF32DDD
:100A2000F0623F2E08C08C3621F4832D8068382E6A
:100A300002C0883641F4F70193FD859193FF8191BF
:100A40007F018111B3CF982F9F7D9554933028F467
:100A50000C5F1F4F9FE399830DC0833631F08337BE
:100A600071F0833509F059C021C0F8018081898374
:100A70000E5F1F4F88248394912C530113C02801CB
:100A8000F2E04F0E511CF801A080B18036FE03C089
:100A9000692D70E002C06FEF7FEFC5010E949406E0
:100AA0004C018201F32DFF773F2E16C0280122E072
:100AB000420E511CF801A080B18036FE03C0692DA2
:100AC00070E002C06FEF7FEFC5010E9489064C0104
:100AD000F32DF0683F2E820133FC1BC0822D90E085
:100AE00088169906B0F4B60180E290E00E949F0655
:100AF0002A94F4CFF50137FC859137FE81915F018F
:100B0000B60190E00E949F0621102A9421E0821AEB
:100B100091088114910471F7E8C0843611F0893688
:100B200041F5F80137FE07C06081718182819381B0
:100B30000C5F1F4F08C060817181072E000C880B6D
:100B4000990B0E5F1F4FF32DFF763F2E97FF09C0C5
:100B500090958095709561957F4F8F4F9F4FF0686E
:100B60003F2E2AE030E0A3010E94DB06882E861883
:100B700045C0853731F4232D2F7EB22E2AE030E098
:100B800025C0932D997FB92E8F36C1F018F4883582
:100B900079F0B5C0803719F0883721F0B0C0E92F5F
:100BA000E061BE2EB4FE0DC0FB2DF460BF2E09C067
:100BB00034FE0AC0292F2660B22E06C028E030E09D
:100BC00005C020E130E002C020E132E0F801B7FECC
:100BD00007C060817181828193810C5F1F4F06C0C5
:100BE0006081718180E090E00E5F1F4FA3010E9441
:100BF000DB06882E8618FB2DFF773F2E36FE0DC0B4
:100C0000232D2E7FA22E891458F434FE0BC032FC03
:100C100009C0832D8E7EA82E05C0B82CA32C03C03E
:100C2000B82C01C0B92CA4FE0FC0FE01E80DF11DC7
:100C30008081803321F49A2D997EA92E09C0A2FECD
:100C400006C0B394B39404C08A2D867809F0B39497
:100C5000A3FC11C0A0FE06C0B21488F4280C922C8C
:100C60009B180EC0B21460F4B60180E290E00E94BE
:100C70009F06B394F7CFB21418F42B1802C0982C27
:100C8000212CA4FE10C0B60180E390E00E949F06D4
:100C9000A2FE17C0A1FC03C088E790E002C088E56F
:100CA00090E0B6010CC08A2D867859F0A1FE02C0F2
:100CB0008BE201C080E2A7FC8DE2B60190E00E94C9
:100CC0009F06891438F4B60180E390E00E949F06E5
:100CD0009A94F7CF8A94F301E80DF11D8081B60153
:100CE00090E00E949F068110F5CF222009F442CEA9
:100CF000B60180E290E00E949F062A94F6CFF601AA
:100D00008681978102C08FEF9FEF2B96E2E10C94D2
:100D10005507FC010590615070400110D8F780958F
:100D200090958E0F9F1F0895FC01615070400190B7
:100D30000110D8F7809590958E0F9F1F08950F93FF
:100D40001F93CF93DF93FB01238121FD03C08FEF1E
:100D50009FEF2CC022FF16C0468157812481358128
:100D60004217530744F4A081B1819D012F5F3F4F8B
:100D7000318320838C93268137812F5F3F4F3783C8
:100D8000268314C08B01EC01FB010084F185E02D6A
:100D90000995892BE1F6D80116968D919C911797AC
:100DA000019617969C938E931697CE01DF91CF9163
:100DB0001F910F910895FA01AA27283051F120318F
:100DC00081F1E8946F936E7F6E5F7F4F8F4F9F4FDF
:100DD000AF4FB1E03ED0B4E03CD0670F781F891F21
:100DE0009A1FA11D680F791F8A1F911DA11D6A0FEF
:100DF000711D811D911DA11D20D009F468943F91A2
:100E00002AE0269F11243019305D3193DEF6CF01A0
:100E10000895462F4770405D4193B3E00FD0C9F766
:100E2000F6CF462F4F70405D4A3318F0495D31FDD3
:100E30004052419302D0A9F7EACFB4E0A695979526
:100E4000879577956795BA95C9F7009761057105FC
:100E500008959B01AC010A2E069457954795379546
:100E60002795BA95C9F7620F731F841F951FA01DA0
:100E700008952F923F924F925F926F927F928F923E
:100E80009F92AF92BF92CF92DF92EF92FF920F9319
:100E90001F93CF93DF93CDB7DEB7CA1BDB0B0FB623
:100EA000F894DEBF0FBECDBF09942A8839884888E0
:100EB0005F846E847D848C849B84AA84B984C88476
:100EC000DF80EE80FD800C811B81AA81B981CE0F6D
:100ED000D11D0FB6F894DEBF0FBECDBFED01089552
:040EE000F894FFCFB4
:100EE400424A525A636AE1000001033B003800356C
:100EF4000032003A003700340031004D61737465EC
:100F040072204465766963650053656E64696E6733
:100F14002044617461203A2000256900256C750025
:00000001FF
