:100000000C942A000C9447000C9447000C94470071
:100010000C9447000C9447000C9447000C94470044
:100020000C9447000C9447000C9447000C94470034
:100030000C9447000C9447000C9447000C94470024
:100040000C9447000C9447000C9447000C94470014
:100050000C94470011241FBECFE5D8E0DEBFCDBF12
:1000600010E0A0E6B0E0E8ECFCE002C005900D92E4
:10007000A63AB107D9F720E0A6EAB0E001C01D9288
:10008000AB3AB207E1F70E9456000C9462060C945A
:10009000000087E690E00E94C40180E690E00E94A4
:1000A000440281E690E00E94EA0008950E9449001F
:1000B00027E830E041E061E081E690E00E948A01BB
:1000C00066EA70E087E690E00E94E7019091A60062
:1000D00080ED890F8A3028F467EA70E00E94A7015A
:1000E00004C0E7EAF0E09083118227EA30E048E0BC
:1000F00061E081E690E00E948A018091A600883349
:1001000029F480E690E00E946C02DACF8933C1F6D0
:1001100080E690E00E949502D3CF0F931F93CF9378
:100120000097E1F0C62F8C01617002960E94FF02D9
:10013000C1FB662760F9C80103960E94FF02C2FB5B
:10014000662760F9C80104960E94FF02C3FB662778
:1001500060F9C80105960E94FF0201C080E0CF91BE
:100160001F910F910895CF93DF93009779F0EC01E1
:10017000219661E0CE010E94FF028AE18A95F1F7A3
:1001800000C060E0CE010E94FF0201C080E0DF916C
:10019000CF9108951F93CF93DF930097B1F0162F5F
:1001A000EC0160E00E94FF02612F62956F70CE014A
:1001B0000E948D00CE010E94B300612FCE010E94EB
:1001C0008D00CE010E94B30001C080E0DF91CF918D
:1001D0001F9108951F93CF93DF93009709F450C0A8
:1001E000EC0101960E946403CE010E94640310E0BA
:1001F00008C0812F90E002968C0F9D1F0E9464031F
:100200001F5F1430B0F32FEF89EF90E02150804052
:100210009040E1F700C0000068E3CE010E94CA00F0
:100220008FE19EE40197F1F700C0000068E3CE0182
:100230000E94CA009FEF22E587E091502040804055
:10024000E1F700C0000068E3CE010E94CA0061E04F
:10025000CE010E94CA0062E0CE010E94CA0066E0A0
:10026000CE010E94CA006CE0CE010E94CA0068E282
:10027000CE010E94CA0060E8CE010E94CA0001C0FF
:1002800080E0DF91CF911F9108950097F9F06230DF
:1002900071F018F4613031F01BC0633069F06430E4
:1002A00081F016C06FE7640F0E94CA0008956FEBDB
:1002B000640F0E94CA00089563E9640F0E94CA0097
:1002C000089563ED640F0E94CA00089580E00895C8
:1002D00081E008951F93CF93DF930097B1F0162F1D
:1002E000EC0161E00E94FF02612F62956F70CE0108
:1002F0000E948D00CE010E94B300612FCE010E94AA
:100300008D00CE010E94B30001C080E0DF91CF914B
:100310001F9108950F931F93CF93DF938C01E901F1
:10032000009769F0209769F00E94450104C021966A
:10033000C8010E946A0168816111F9CF03C080E0A1
:1003400001C080E0DF91CF911F910F910895611559
:100350007105C1F0FB0194E0DB011D929A95E9F76C
:100360001F928F938FE890E09F938F93FF936F93EB
:100370000E9478030F900F900F900F900F900F90A6
:1003800081E0089580E008950F931F93CF93009725
:10039000C9F08C01C0E081E006C0C8018C0F911D3E
:1003A0000E946403CF5FC430C0F3C0E008C08C2F4C
:1003B00090E00496800F911F0E946403CF5FC430C9
:1003C000B0F301C080E0CF911F910F9108958F92FB
:1003D0009F92AF92BF92CF92DF92EF92FF920F93D4
:1003E0001F93CF93DF931F92CDB7DEB7198200978B
:1003F000E1F14B016C0100E081E034C060E0C60136
:10040000810F911D0E94FF021F5F01C010E0143098
:10041000A8F3A02EB12C61E0C6018A0D9B1D0E949D
:10042000FF0210E01CC0E12EF12CC7010496BE01B2
:100430006F5F7F4F8C0D9D1D0E943F03998191300E
:1004400069F49501220F331F220F331F2A563F4FA5
:10045000F901EE0DFF1D9081F40190831F5F1430B0
:1004600010F30F5F043090F201C080E00F90DF9135
:10047000CF911F910F91FF90EF90DF90CF90BF90A1
:10048000AF909F908F900895CF93DF931F92CDB739
:10049000DEB70097E1F0FC012081922F97708981EF
:1004A000887F892B922F92959F709770990F990F43
:1004B000990F877C892B27FB222720F9806420FB5A
:1004C00087F98983CE0101960E94640301C080E010
:1004D0000F90DF91CF910895CF93DF931F92CDB707
:1004E000DEB70097E9F0FC012081922F9770898197
:1004F000887F892B922F92959F709770990F990FF3
:10050000990F877C892B27FB222720F9806420FB09
:1005100087F9898361E0CE0101960E94FF0201C044
:1005200080E00F90DF91CF910895CF93DF931F92DA
:10053000CDB7DEB70097E9F0FC012081922F9770CC
:100540008981887F892B922F92959F709770990F40
:10055000990F990F877C892B27FB222720F980642C
:1005600020FB87F9898360E0CE0101960E94FF029B
:1005700001C080E00F90DF91CF910895FC01892B9D
:10058000D1F120812695269526952770808186FBBE
:10059000992790F986FF18C0913079F5E82FE77018
:1005A000F0E0EE0FFF1FE158FF4F0190F081E02DCA
:1005B000308181E090E002C0880F991F2A95E2F710
:1005C000832B808381E00895E081E770F0E0EE0FF7
:1005D000FF1FE158FF4F0190F081E02D308181E055
:1005E00090E002C0880F991F2A95E2F78095832337
:1005F000808381E0089580E0089580E00895009769
:10060000D1F1DC012C91269526952695277066233D
:1006100019F06130C9F031C0DC01EC91E770F0E015
:10062000EE0FFF1FE958FF4F0190F081E02D308160
:1006300081E090E002C0880F991F2A95E2F780952B
:100640008323808381E00895DC01EC91E770F0E082
:10065000EE0FFF1FE958FF4F0190F081E02D308130
:1006600081E090E002C0880F991F2A95E2F7832B62
:10067000808381E0089580E0089580E008950097E8
:10068000F9F061157105F1F0DC012C9126952695A4
:1006900026952770EC91E770F0E0EE0FFF1FE1590F
:1006A000FF4F0190F081E02D808190E002C0959590
:1006B00087952A95E2F78170FB01808381E0089598
:1006C00080E0089580E00895CF93DF93009761F074
:1006D000EC010E94BE02688167FB662760F9CE01CB
:1006E0000E94FF0281E001C080E0DF91CF91089578
:1006F000AEE0B0E0EEE7F3E00C9439060D891E8918
:1007000086E08C831A8309838FEF9FE79E838D8316
:10071000AE01475E5F4F6F89788DCE0101960E94D2
:100720009A03EF81F885E00FF11F10822E96E4E026
:100730000C945506ABE0B0E0E0EAF3E00C942B0635
:100740006C017B018A01FC0117821682838181FF83
:10075000CCC1CE0101963C01F6019381F70193FDD6
:10076000859193FF81917F01882309F4BAC1853275
:1007700039F493FD859193FF81917F01853229F4AE
:10078000B60190E00E949105E7CF912C212C312CED
:10079000FFE1F315D8F08B3279F038F4803279F03C
:1007A0008332A1F4232D20611DC08D3261F080338E
:1007B00069F4232D216016C0832D8260382EE32D2D
:1007C000E4603E2E2AC0F32DF8601DC037FC2DC01A
:1007D00020ED280F2A3040F08E32B9F436FC81C16A
:1007E000232D2064322E19C036FE06C08AE0989E62
:1007F000200D1124922E11C0EAE02E9E200D11240E
:10080000222EF32DF0623F2E08C08C3621F4832D6A
:100810008068382E02C0883641F4F70193FD859137
:1008200093FF81917F018111B3CF982F9F7D9554C4
:10083000933028F40C5F1F4F9FE399830DC08336DC
:1008400031F0833771F0833509F059C021C0F801C8
:10085000808189830E5F1F4F88248394912C5301DC
:1008600013C02801F2E04F0E511CF801A080B180A6
:1008700036FE03C0692D70E002C06FEF7FEFC50147
:100880000E9486054C018201F32DFF773F2E16C092
:10089000280122E0420E511CF801A080B18036FEF2
:1008A00003C0692D70E002C06FEF7FEFC5010E94A9
:1008B0007B054C01F32DF0683F2E820133FC1BC0F9
:1008C000822D90E088169906B0F4B60180E290E09F
:1008D0000E9491052A94F4CFF50137FC859137FEEB
:1008E00081915F01B60190E00E94910521102A9448
:1008F00021E0821A91088114910471F7E8C08436CE
:1009000011F0893641F5F80137FE07C06081718129
:10091000828193810C5F1F4F08C060817181072E17
:10092000000C880B990B0E5F1F4FF32DFF763F2EA7
:1009300097FF09C090958095709561957F4F8F4F77
:100940009F4FF0683F2E2AE030E0A3010E94CD05C2
:10095000882E861845C0853731F4232D2F7EB22E80
:100960002AE030E025C0932D997FB92E8F36C1F053
:1009700018F4883579F0B5C0803719F0883721F040
:10098000B0C0E92FE061BE2EB4FE0DC0FB2DF460B7
:10099000BF2E09C034FE0AC0292F2660B22E06C021
:1009A00028E030E005C020E130E002C020E132E084
:1009B000F801B7FE07C060817181828193810C5F6D
:1009C0001F4F06C06081718180E090E00E5F1F4F75
:1009D000A3010E94CD05882E8618FB2DFF773F2EA0
:1009E00036FE0DC0232D2E7FA22E891458F434FE1E
:1009F0000BC032FC09C0832D8E7EA82E05C0B82CFA
:100A0000A32C03C0B82C01C0B92CA4FE0FC0FE015A
:100A1000E80DF11D8081803321F49A2D997EA92E55
:100A200009C0A2FE06C0B394B39404C08A2D867890
:100A300009F0B394A3FC11C0A0FE06C0B21488F460
:100A4000280C922C9B180EC0B21460F4B60180E200
:100A500090E00E949105B394F7CFB21418F42B18CC
:100A600002C0982C212CA4FE10C0B60180E390E0B7
:100A70000E949105A2FE17C0A1FC03C088E790E088
:100A800002C088E590E0B6010CC08A2D867859F046
:100A9000A1FE02C08BE201C080E2A7FC8DE2B6019C
:100AA00090E00E949105891438F4B60180E390E04B
:100AB0000E9491059A94F7CF8A94F301E80DF11DF5
:100AC0008081B60190E00E9491058110F5CF22202F
:100AD00009F442CEB60180E290E00E9491052A948A
:100AE000F6CFF6018681978102C08FEF9FEF2B969C
:100AF000E2E10C944706FC01059061507040011042
:100B0000D8F7809590958E0F9F1F0895FC01615036
:100B1000704001900110D8F7809590958E0F9F1F1F
:100B200008950F931F93CF93DF93FB01238121FD42
:100B300003C08FEF9FEF2CC022FF16C04681578164
:100B4000248135814217530744F4A081B1819D016E
:100B50002F5F3F4F318320838C93268137812F5F16
:100B60003F4F3783268314C08B01EC01FB010084C7
:100B7000F185E02D0995892BE1F6D80116968D9126
:100B80009C911797019617969C938E931697CE017A
:100B9000DF91CF911F910F910895FA01AA27283074
:100BA00051F1203181F1E8946F936E7F6E5F7F4F3A
:100BB0008F4F9F4FAF4FB1E03ED0B4E03CD0670FB6
:100BC000781F891F9A1FA11D680F791F8A1F911D09
:100BD000A11D6A0F711D811D911DA11D20D009F459
:100BE00068943F912AE0269F11243019305D31939B
:100BF000DEF6CF010895462F4770405D4193B3E084
:100C00000FD0C9F7F6CF462F4F70405D4A3318F02A
:100C1000495D31FD4052419302D0A9F7EACFB4E0DB
:100C2000A6959795879577956795BA95C9F7009793
:100C30006105710508959B01AC010A2E0694579534
:100C4000479537952795BA95C9F7620F731F841F8B
:100C5000951FA01D08952F923F924F925F926F9221
:100C60007F928F929F92AF92BF92CF92DF92EF923C
:100C7000FF920F931F93CF93DF93CDB7DEB7CA1BBD
:100C8000DB0B0FB6F894DEBF0FBECDBF09942A88E8
:100C9000398848885F846E847D848C849B84AA8490
:100CA000B984C884DF80EE80FD800C811B81AA811D
:100CB000B981CE0FD11D0FB6F894DEBF0FBECDBFE8
:080CC000ED010895F894FFCF47
:100CC80063434B535B636B424A525A222A323A3986
:100CD800003600330030003B003800350032003A5F
:100CE8000037003400310056616C75653A200025E4
:100CF8006900256C75003738392F3435362A31327A
:060D0800332D43303D2BAA
:00000001FF
