:100000000C942A000C94E7010C940B020C942F0220
:100010000C9447000C9447000C9447000C94470044
:100020000C9447000C9447000C9447000C94470034
:100030000C94BF020C949B020C9447000C94770222
:100040000C9453020C9447000C9447000C94470006
:100050000C94470011241FBECFE5D8E0DEBFCDBF12
:1000600010E0A0E6B0E0E8E1F7E002C005900D92F4
:10007000A237B107D9F720E0A2E7B0E001C01D9296
:10008000A338B207E1F70E94A7000C948A030C94EE
:10009000000082E890E00E94550380918200813642
:1000A00081F481E690E00E94D40083E60E9462031E
:1000B0002FEF89E698E1215080409040E1F700C0A1
:1000C000000080918200823681F481E690E00E94F7
:1000D000FD0084E60E9462032FEF89E698E121503B
:1000E00080409040E1F700C000000895CF93DF9377
:1000F000CDB7DEB760970FB6F894DEBF0FBECDBFA9
:100100001D828E8181608E838F8181608F831E86A8
:100110001D86188A1F8689E490E09C878B871A8643
:100120001986CE0101960E94410360960FB6F8949D
:10013000DEBF0FBECDBFDF91CF91089581E690E085
:100140000E94AC0080E690E00E94AC0008950E94FE
:100150009E000E947600FFCFCF93DF931F92CDB712
:10016000DEB70097E1F0FC012081922F9770898122
:10017000887F892B922F92959F709770990F990F76
:10018000990F877C892B27FB222720F9806420FB8D
:1001900087F98983CE0101960E94B20101C080E0F7
:1001A0000F90DF91CF910895CF93DF931F92CDB73A
:1001B000DEB70097E9F0FC012081922F97708981CA
:1001C000887F892B922F92959F709770990F990F26
:1001D000990F877C892B27FB222720F9806420FB3D
:1001E00087F9898361E0CE0101960E94720101C006
:1001F00080E00F90DF91CF910895CF93DF931F920E
:10020000CDB7DEB70097E9F0FC012081922F9770FF
:100210008981887F892B922F92959F709770990F73
:10022000990F990F877C892B27FB222720F980645F
:1002300020FB87F9898360E0CE0101960E9472015C
:1002400001C080E00F90DF91CF91089586B1806169
:1002500086B9E0917200F0917300309709F009952A
:100260000895FC01892BD1F12081269526952695AC
:100270002770808186FB992790F986FF18C09130FE
:1002800079F5E82FE770F0E0EE0FFF1FE659FF4F1A
:100290000190F081E02D308181E090E002C0880F74
:1002A000991F2A95E2F7832B808381E00895E081EE
:1002B000E770F0E0EE0FFF1FE659FF4F0190F0816D
:1002C000E02D308181E090E002C0880F991F2A95CF
:1002D000E2F780958323808381E0089580E008958C
:1002E00080E008950097D1F1DC012C9126952695A8
:1002F00026952770662319F06130C9F031C0DC0102
:10030000EC91E770F0E0EE0FFF1FEE59FF4F019008
:10031000F081E02D308181E090E002C0880F991FCC
:100320002A95E2F780958323808381E00895DC019C
:10033000EC91E770F0E0EE0FFF1FEE59FF4F0190D8
:10034000F081E02D308181E090E002C0880F991F9C
:100350002A95E2F7832B808381E0089580E0089559
:1003600080E00895CF93DF93009761F0EC010E9445
:100370003101688167FB662760F9CE010E94720136
:1003800081E001C080E0DF91CF9108958AB78F7B33
:100390008ABFE0917800F0917900309709F00995D3
:1003A00008958AB78F778ABFE0917600F091770041
:1003B000309709F0099508958AB78F7D8ABFE0913B
:1003C0007400F0917500309709F0099508951F9217
:1003D0000F920FB60F9211242F933F934F935F9379
:1003E0006F937F938F939F93AF93BF93EF93FF93FD
:1003F0000E94C601FF91EF91BF91AF919F918F91A4
:100400007F916F915F914F913F912F910F900FBE10
:100410000F901F9018951F920F920FB60F921124F4
:100420002F933F934F935F936F937F938F939F93FC
:10043000AF93BF93EF93FF930E94D101FF91EF9190
:10044000BF91AF919F918F917F916F915F914F91EC
:100450003F912F910F900FBE0F901F9018951F92F4
:100460000F920FB60F9211242F933F934F935F93E8
:100470006F937F938F939F93AF93BF93EF93FF936C
:100480000E94DC01FF91EF91BF91AF919F918F91FD
:100490007F916F915F914F913F912F910F900FBE80
:1004A0000F901F9018951F920F920FB60F92112464
:1004B0002F933F934F935F936F937F938F939F936C
:1004C000AF93BF93EF93FF930E942601FF91EF91AB
:1004D000BF91AF919F918F917F916F915F914F915C
:1004E0003F912F910F900FBE0F901F9018951F9264
:1004F0000F920FB60F9211242F933F934F935F9358
:100500006F937F938F939F93AF93BF93EF93FF93DB
:100510000E946903FF91EF91BF91AF919F918F91DD
:100520007F916F915F914F913F912F910F900FBEEF
:100530000F901F9018951F920F920FB60F921124D3
:100540002F933F934F935F936F937F938F939F93DB
:10055000AF93BF93EF93FF930E947403FF91EF91CA
:10056000BF91AF919F918F917F916F915F914F91CB
:100570003F912F910F900FBE0F901F9018951F92D3
:100580000F920FB60F9211242F933F934F935F93C7
:100590006F937F938F939F93AF93BF93EF93FF934B
:1005A0000E94E302FF91EF91BF91AF919F918F91D4
:1005B0007F916F915F914F913F912F910F900FBE5F
:1005C0000F901F9018958EB18F778EB90895FC010A
:1005D0008AB188608AB980859185909381008093E3
:1005E00080008581982F917080FF05C08AB180645A
:1005F0008AB9789405C0911103C08AB18F7B8AB9FA
:1006000085818E70863049F480B5826080BD80B56A
:10061000846080BD80B5846080BD0895FC018AB18E
:1006200080618AB98285938590937F0080937E0054
:100630008485958590937D0080937C008685978541
:1006400090937B0080937A008681982F917080FF31
:1006500005C08AB180688AB9789405C0911103C039
:100660008AB18F778AB986818E70863049F480B5D9
:10067000826080BD80B5846080BD80B5846080BDAF
:100680000895CF93DF93009761F0EC0183E389B97C
:1006900010BCCE010E94E702CE010E940E0381E051
:1006A00001C080E0DF91CF910895009739F05F9B02
:1006B00007C02CB1FC01208381E0089580E00895FB
:1006C00080E008955D9BFECF9AB190649AB98CB991
:1006D00008958AB18F7B8AB9E0918000F091810002
:1006E000309709F009950895E0917E00F0917F0020
:1006F000309709F00995E0917C00F0917D003097EA
:1007000009F00995E0917A00F0917B00309709F0AB
:0807100009950895F894FFCF4C
:1007180012023B003800350032003A00370034003E
:0207280031009E
:00000001FF
