:100000000C942A000C94C7010C94EB010C940F0281
:100010000C9447000C9447000C9447000C94470044
:100020000C9447000C9447000C9447000C94470034
:100030000C9447000C947B020C9447000C945702DC
:100040000C9433020C9447000C9447000C94470026
:100050000C94470011241FBECFE5D8E0DEBFCDBF12
:1000600010E0A0E6B0E0E4E8F6E002C005900D92F2
:10007000A237B107D9F720E0A2E7B0E001C01D9296
:10008000A338B207E1F70E9474000C9440030C946B
:100090000000CF93DF93CDB7DEB760970FB6F8942B
:1000A000DEBF0FBECDBF1D828E818E7F8E838F817E
:1000B0008E7F8F831E861D86188A1F861C861B8650
:1000C0001A861986CE0101960E94FF0260960FB62D
:1000D000F894DEBF0FBECDBFDF91CF91089580E6CB
:1000E00090E00E948C0008950E946F000E944900D9
:1000F00082E890E00E94120380918200813629F408
:1001000080E690E00E94B400F3CF823689F780E663
:1001100090E00E94DD00ECCFCF93DF931F92CDB72C
:10012000DEB70097E1F0FC012081922F9770898162
:10013000887F892B922F92959F709770990F990FB6
:10014000990F877C892B27FB222720F9806420FBCD
:1001500087F98983CE0101960E94920101C080E057
:100160000F90DF91CF910895CF93DF931F92CDB77A
:10017000DEB70097E9F0FC012081922F977089810A
:10018000887F892B922F92959F709770990F990F66
:10019000990F877C892B27FB222720F9806420FB7D
:1001A00087F9898361E0CE0101960E94520101C066
:1001B00080E00F90DF91CF910895CF93DF931F924E
:1001C000CDB7DEB70097E9F0FC012081922F977040
:1001D0008981887F892B922F92959F709770990FB4
:1001E000990F990F877C892B27FB222720F98064A0
:1001F00020FB87F9898360E0CE0101960E945201BD
:1002000001C080E00F90DF91CF91089586B18061A9
:1002100086B9E0917200F0917300309709F009956A
:100220000895FC01892BD1F12081269526952695EC
:100230002770808186FB992790F986FF18C091303E
:1002400079F5E82FE770F0E0EE0FFF1FE759FF4F59
:100250000190F081E02D308181E090E002C0880FB4
:10026000991F2A95E2F7832B808381E00895E0812E
:10027000E770F0E0EE0FFF1FE759FF4F0190F081AC
:10028000E02D308181E090E002C0880F991F2A950F
:10029000E2F780958323808381E0089580E00895CC
:1002A00080E008950097D1F1DC012C9126952695E8
:1002B00026952770662319F06130C9F031C0DC0142
:1002C000EC91E770F0E0EE0FFF1FEF59FF4F019048
:1002D000F081E02D308181E090E002C0880F991F0D
:1002E0002A95E2F780958323808381E00895DC01DD
:1002F000EC91E770F0E0EE0FFF1FEF59FF4F019018
:10030000F081E02D308181E090E002C0880F991FDC
:100310002A95E2F7832B808381E0089580E0089599
:1003200080E00895CF93DF93009761F0EC010E9485
:100330001101688167FB662760F9CE010E945201B6
:1003400081E001C080E0DF91CF9108958AB78F7B73
:100350008ABFE0917800F0917900309709F0099513
:1003600008958AB78F778ABFE0917600F091770081
:10037000309709F0099508958AB78F7D8ABFE0917B
:100380007400F0917500309709F0099508951F9257
:100390000F920FB60F9211242F933F934F935F93B9
:1003A0006F937F938F939F93AF93BF93EF93FF933D
:1003B0000E94A601FF91EF91BF91AF919F918F9104
:1003C0007F916F915F914F913F912F910F900FBE51
:1003D0000F901F9018951F920F920FB60F92112435
:1003E0002F933F934F935F936F937F938F939F933D
:1003F000AF93BF93EF93FF930E94B101FF91EF91F1
:10040000BF91AF919F918F917F916F915F914F912C
:100410003F912F910F900FBE0F901F9018951F9234
:100420000F920FB60F9211242F933F934F935F9328
:100430006F937F938F939F93AF93BF93EF93FF93AC
:100440000E94BC01FF91EF91BF91AF919F918F915D
:100450007F916F915F914F913F912F910F900FBEC0
:100460000F901F9018951F920F920FB60F921124A4
:100470002F933F934F935F936F937F938F939F93AC
:10048000AF93BF93EF93FF930E940601FF91EF910B
:10049000BF91AF919F918F917F916F915F914F919C
:1004A0003F912F910F900FBE0F901F9018951F92A4
:1004B0000F920FB60F9211242F933F934F935F9398
:1004C0006F937F938F939F93AF93BF93EF93FF931C
:1004D0000E941F03FF91EF91BF91AF919F918F9168
:1004E0007F916F915F914F913F912F910F900FBE30
:1004F0000F901F9018951F920F920FB60F92112414
:100500002F933F934F935F936F937F938F939F931B
:10051000AF93BF93EF93FF930E942A03FF91EF9154
:10052000BF91AF919F918F917F916F915F914F910B
:100530003F912F910F900FBE0F901F901895FC01C7
:100540008AB188608AB98085918590938100809373
:1005500080008581982F917080FF08C08AB18064E7
:100560008AB98AB180648AB9789405C0911103C0B0
:100570008AB18F7B8AB985818E70863049F480B5C7
:10058000826080BD80B5846080BD80B5846080BDA0
:100590000895FC018AB180618AB982859385909320
:1005A0007F0080937E008485958590937D00809365
:1005B0007C008685978590937B0080937A00868166
:1005C000982F917080FF08C08AB180688AB98AB17B
:1005D00080688AB9789405C0911103C08AB18F7779
:1005E0008AB986818E70863049F480B5826080BD7C
:1005F00080B5846080BD80B5846080BD0895CF9350
:10060000DF93009759F0EC0183E389B9CE010E9492
:100610009F02CE010E94C90281E001C080E0DF910B
:10062000CF910895009739F05F9B07C02CB1FC0172
:10063000208381E0089580E0089580E008958AB1E4
:100640008F7B8AB9E0918000F0918100309709F0AA
:1006500009950895E0917E00F0917F00309709F0B0
:100660000995E0917C00F0917D00309709F00995A3
:10067000E0917A00F0917B00309709F00995089598
:04068000F894FFCF1C
:10068400023B003800350032003A003700340031B4
:02069400000064
:00000001FF
