:100000000C942A000C9447000C9447000C94470071
:100010000C9447000C9447000C9447000C94470044
:100020000C9447000C9447000C9447000C94470034
:100030000C9447000C9447000C9447000C94470024
:100040000C9447000C9447000C9447000C94470014
:100050000C94470011241FBECFE5D8E0DEBFCDBF12
:1000600010E0A0E6B0E0EAE4F1E002C005900D92F5
:10007000A037B107D9F720E0A0E7B0E001C01D929A
:10008000A237B207E1F70E9452000C94A3000C942F
:1000900000006FEF82E00E94830060E082E00E9437
:1000A000930008950E944900609171008DEC689F53
:1000B000812D112486958695869590E1899F9001E2
:1000C0001124880F982F990F990F890F681B622BA5
:1000D0006093700082E00E949300809171008336EB
:1000E00019F487E380937100809171008F5F809392
:1000F00071002FEF81EE94E0215080409040E1F7B5
:1001000000C00000D1CF843060F4E82FF0E0EE0FA3
:10011000FF1FE859FF4F0190F081E02D608381E0DF
:10012000089580E00895843060F4E82FF0E0EE0F49
:10013000FF1FE05AFF4F0190F081E02D608381E0C6
:0A014000089580E00895F894FFCFC1
:10014A003B003800350032003A00370034003100F5
:00000001FF
