:100000000C9451000C9421030C9445030C94690347
:100010000C946E000C946E000C946E000C946E00A8
:100020000C946E000C946E000C946E000C946E0098
:100030000C946E000C946E000C946E000C946E0088
:100040000C948D030C946E000C946E000C946E0056
:100050000C946E00BD00C700D100DB00E500EF008E
:10006000F90010011D012A013701440151015E010F
:100070006B01840188018C019001940198019C011D
:10008000A001F601030210021D022A0237024402F7
:10009000510267026C02710276027B0280028502C5
:1000A0008A0211241FBECFE5D8E0DEBFCDBF10E02D
:1000B000A0E6B0E0E2E7F7E002C005900D92A837B5
:1000C000B107D9F720E0A8E7B0E001C01D92A83839
:1000D000B207E1F70E9481000C94B7030C94000072
:1000E00082E790E00E94A7008CE690E00E94A700C3
:1000F00086E690E00E94A70080E690E00E94A700BC
:1001000008950E94700040E850E060E082E790E0CF
:100110000E94D60246E850E061E08CE690E00E9442
:10012000D60246E850E061E08CE690E00E94D602FC
:1001300044E850E062E086E690E00E94D60242E8A1
:1001400050E063E080E690E00E94D602DCCFDC0164
:10015000892B09F43BC186B18F7786B91296EC9151
:1001600012974E2F50E0FA013197E730F10508F071
:1001700049C0E65DFF4F0C94B10386B1816086B93A
:1001800086B18D7F86B986B18B7F86B93BC086B13B
:100190008E7F86B986B1826086B986B18B7F86B93B
:1001A00031C086B1816086B986B1826086B986B178
:1001B0008B7F86B927C086B18E7F86B986B18D7F49
:1001C00086B986B1846086B91DC086B1816086B962
:1001D00086B18D7F86B986B1846086B913C086B139
:1001E0008E7F86B986B1826086B986B1846086B911
:1001F00009C086B1816086B986B1826086B986B150
:10020000846086B91396EC9113974E2F50E04830D6
:10021000510508F06CC0FA01EF5CFF4F0C94B1037C
:1002200087B18E7F87B987B18D7F87B987B18B7F83
:1002300087B987B1877F87B95AC087B1816087B98D
:1002400087B18D7F87B987B18B7F87B987B1877F6A
:1002500087B94DC087B18E7F87B987B1826087B972
:1002600087B18B7F87B987B1877F87B940C087B156
:10027000816087B987B1826087B987B18B7F87B981
:1002800087B1877F87B933C087B18E7F87B987B140
:100290008D7F87B987B1846087B987B1877F87B938
:1002A00026C087B1816087B987B18D7F87B987B153
:1002B000846087B987B1877F87B919C087B18E7F7E
:1002C00087B987B1826087B987B1846087B987B100
:1002D000877F87B90CC087B1816087B987B1826099
:1002E00087B987B1846087B987B1877F87B913964B
:1002F000EC9113974E2F50E04830510520F5FA014C
:10030000E75CFF4F0C94B1038AB38E7F8ABB1BC09E
:100310008AB38D7F8ABB17C08AB38B7F8ABB13C019
:100320008AB3877F8ABB0FC08AB38F7E8ABB0BC01C
:100330008AB38F7D8ABB07C08AB38F7B8ABB03C019
:100340008AB38F778ABB86B1886086B986B18061AF
:1003500086B978948D919C911197909379008093B0
:10036000780015968C911597982F917080FF04C096
:1003700087B18F7D87B909C0911104C087B18062B0
:1003800087B903C087B18F7D87B914968C9181306E
:1003900059F018F0833079F014C087B18F7787B99E
:1003A00087B18F7B87B90DC087B18F7787B987B148
:1003B000806487B906C087B1806887B987B18064D7
:1003C00087B986B1806886B981E0089580E0089594
:1003D000892B09F4A4C0862F90E08830910508F09D
:1003E0006CC0FC01EF5BFF4F0C94B10387B18E7FB3
:1003F00087B987B18D7F87B987B18B7F87B987B17F
:10040000877F87B95AC087B1816087B987B18D7FEF
:1004100087B987B18B7F87B987B1877F87B94DC08F
:1004200087B18E7F87B987B1826087B987B18B7FAB
:1004300087B987B1877F87B940C087B1816087B9A5
:1004400087B1826087B987B18B7F87B987B1877F92
:1004500087B933C087B18E7F87B987B18D7F87B960
:1004600087B1846087B987B1877F87B926C087B194
:10047000816087B987B18D7F87B987B1846087B97B
:1004800087B1877F87B919C087B18E7F87B987B158
:10049000826087B987B1846087B987B1877F87B960
:1004A0000CC087B1816087B987B1826087B987B195
:1004B000846087B987B1877F87B9862F90E08830BD
:1004C000910578F5FC01E75BFF4F0C94B1038AB30B
:1004D0008E7F8ABB81E008958AB38D7F8ABB81E0DD
:1004E00008958AB38B7F8ABB81E008958AB3877FA2
:1004F0008ABB81E008958AB38F7E8ABB81E008952C
:100500008AB38F7D8ABB81E008958AB38F7B8ABBD3
:1005100081E008958AB38F778ABB81E0089580E0F7
:10052000089581E00895892B29F086B1806486B909
:1005300081E0089580E008950097A1F161157105AB
:1005400099F1FC018581982F917080FF0BC024B137
:1005500085B190E0982F8827822BFB0191838083BF
:1005600081E00895911113C085B190E0982F8827FC
:1005700024B1822B082E892F000C881F990B000CA8
:10058000881F991FFB019183808381E0089524B126
:1005900085B190E0982F8827822BFB01918380837F
:1005A00081E0089580E0089580E008950F931F93FF
:1005B000CF93DF93009789F04115510581F08A01AF
:1005C000EC010E94E801CE010E9493023699FECF11
:1005D000B801CE010E949C0203C080E001C080E00F
:1005E000DF91CF911F910F91089586B1806186B9F7
:1005F000E0917800F0917900309709F0099508951D
:100600008AB78F7B8ABFE0917E00F0917F003097A0
:1006100009F0099508958AB78F778ABFE0917C0029
:10062000F0917D00309709F0099508958AB78F7D84
:100630008ABFE0917A00F0917B00309709F009952C
:1006400008951F920F920FB60F9211242F933F938C
:100650004F935F936F937F938F939F93AF93BF93CA
:10066000EF93FF930E940003FF91EF91BF91AF9131
:100670009F918F917F916F915F914F913F912F91BA
:100680000F900FBE0F901F9018951F920F920FB6EC
:100690000F9211242F933F934F935F936F937F9308
:1006A0008F939F93AF93BF93EF93FF930E940B039E
:1006B000FF91EF91BF91AF919F918F917F916F913A
:1006C0005F914F913F912F910F900FBE0F901F9010
:1006D00018951F920F920FB60F9211242F933F93EC
:1006E0004F935F936F937F938F939F93AF93BF933A
:1006F000EF93FF930E941603FF91EF91BF91AF918B
:100700009F918F917F916F915F914F913F912F9129
:100710000F900FBE0F901F9018951F920F920FB65B
:100720000F9211242F933F934F935F936F937F9377
:100730008F939F93AF93BF93EF93FF930E94F50224
:10074000FF91EF91BF91AF919F918F917F916F91A9
:100750005F914F913F912F910F900FBE0F901F907F
:100760001895EE0FFF1F0590F491E02D0994F89471
:02077000FFCFB9
:100772000000070301010000070201010000070158
:08078200010100000700010164
:00000001FF
