:100000000C942A000C9447000C9447000C94470071
:100010000C9447000C9447000C9447000C94470044
:100020000C9447000C9447000C9447000C94470034
:100030000C9447000C9447000C9447000C94470024
:100040000C9447000C9447000C9447000C94470014
:100050000C94470011241FBECFE5D8E0DEBFCDBF12
:1000600010E0A0E6B0E0EAE5FAE002C005900D92EB
:10007000A838B107D9F720E0A8E8B0E001C01D9288
:10008000AD38B207E1F70E944E000C942B050C949A
:10009000000080E690E00E94D20008950E9449008E
:1000A00026E730E041E061E080E690E00E947201E6
:1000B00069E870E0809188000E948F0129E830E0B3
:1000C0004AE061E080E690E00E9472018091880041
:1000D0008F5F809388002FEF89E698E12150804060
:1000E0009040E1F700C00000E3CF0F931F93CF9340
:1000F0000097E1F0C62F8C01617002960E94ED011D
:10010000C1FB662760F9C80103960E94ED01C2FB9E
:10011000662760F9C80104960E94ED01C3FB6627BB
:1001200060F9C80105960E94ED0101C080E0CF9101
:100130001F910F910895CF93DF93009779F0EC0111
:10014000219661E0CE010E94ED018AE18A95F1F7E6
:1001500000C060E0CE010E94ED0101C080E0DF91AF
:10016000CF9108951F93CF93DF930097B1F0162F8F
:10017000EC0160E00E94ED01612F62956F70CE018D
:100180000E947500CE010E949B00612FCE010E944B
:100190007500CE010E949B0001C080E0DF91CF91ED
:1001A0001F9108951F93CF93DF93009709F450C0D8
:1001B000EC0101960E942D02CE010E942D0210E05A
:1001C00008C0812F90E002968C0F9D1F0E942D0287
:1001D0001F5F1430B0F32FEF89EF90E02150804083
:1001E0009040E1F700C0000068E3CE010E94B20039
:1001F0008FE19EE40197F1F700C0000068E3CE01B3
:100200000E94B2009FEF22E587E09150204080409D
:10021000E1F700C0000068E3CE010E94B20061E097
:10022000CE010E94B20062E0CE010E94B20066E000
:10023000CE010E94B2006CE0CE010E94B20068E2E2
:10024000CE010E94B20060E8CE010E94B20001C05F
:1002500080E0DF91CF911F9108950097F9F062300F
:1002600071F018F4613031F01BC0633069F0643014
:1002700081F016C06FE7640F0E94B20008956FEB23
:10028000640F0E94B200089563E9640F0E94B200F7
:10029000089563ED640F0E94B200089580E0089510
:1002A00081E008951F93CF93DF930097B1F0162F4D
:1002B000EC0161E00E94ED01612F62956F70CE014B
:1002C0000E947500CE010E949B00612FCE010E940A
:1002D0007500CE010E949B0001C080E0DF91CF91AC
:1002E0001F9108950F931F93CF93DF938C01E90122
:1002F000009769F0209769F00E942D0104C02196B3
:10030000C8010E94520168816111F9CF03C080E0E9
:1003100001C080E0DF91CF911F910F910895611589
:100320007105C1F0FB0194E0DB011D929A95E9F79C
:100330001F928F9380E890E09F938F93FF936F932A
:100340000E9441020F900F900F900F900F900F900E
:1003500081E0089580E00895FC01892BD1F120818E
:100360002695269526952770808186FB992790F9FA
:1003700086FF18C0913079F5E82FE770F0E0EE0FB6
:10038000FF1FE259FF4F0190F081E02D308181E0A5
:1003900090E002C0880F991F2A95E2F7832B808393
:1003A00081E00895E081E770F0E0EE0FFF1FE25971
:1003B000FF4F0190F081E02D308181E090E002C09C
:1003C000880F991F2A95E2F780958323808381E027
:1003D000089580E0089580E008950097D1F1DC0150
:1003E0002C912695269526952770662319F0613065
:1003F000C9F031C0DC01EC91E770F0E0EE0FFF1FB7
:10040000EA59FF4F0190F081E02D308181E090E0CA
:1004100002C0880F991F2A95E2F780958323808375
:1004200081E00895DC01EC91E770F0E0EE0FFF1F32
:10043000EA59FF4F0190F081E02D308181E090E09A
:1004400002C0880F991F2A95E2F7832B808381E0F1
:10045000089580E0089580E00895CF93DF9300979A
:1004600061F0EC010E94AC01688167FB662760F9CE
:10047000CE010E94ED0181E001C080E0DF91CF91CB
:100480000895AEE0B0E0E7E4F2E00C9402050D89D7
:100490001E8986E08C831A8309838FEF9FE79E83F2
:1004A0008D83AE01475E5F4F6F89788DCE010196D7
:1004B0000E946302EF81F885E00FF11F10822E96F3
:1004C000E4E00C941E05ABE0B0E0E9E6F2E00C9449
:1004D000F4046C017B018A01FC011782168283817E
:1004E00081FFCCC1CE0101963C01F6019381F70159
:1004F00093FD859193FF81917F01882309F4BAC10F
:10050000853239F493FD859193FF81917F01853286
:1005100029F4B60190E00E945A04E7CF912C212CD7
:10052000312CFFE1F315D8F08B3279F038F48032BA
:1005300079F08332A1F4232D20611DC08D3261F04A
:10054000803369F4232D216016C0832D8260382EFC
:10055000E32DE4603E2E2AC0F32DF8601DC037FC69
:100560002DC020ED280F2A3040F08E32B9F436FC31
:1005700081C1232D2064322E19C036FE06C08AE0C8
:10058000989E200D1124922E11C0EAE02E9E200D7F
:100590001124222EF32DF0623F2E08C08C3621F458
:1005A000832D8068382E02C0883641F4F70193FD10
:1005B000859193FF81917F018111B3CF982F9F7D0A
:1005C0009554933028F40C5F1F4F9FE399830DC01F
:1005D000833631F0833771F0833509F059C021C07B
:1005E000F801808189830E5F1F4F88248394912CAA
:1005F000530113C02801F2E04F0E511CF801A080F6
:10060000B18036FE03C0692D70E002C06FEF7FEF4E
:10061000C5010E944F044C018201F32DFF773F2E4C
:1006200016C0280122E0420E511CF801A080B180C2
:1006300036FE03C0692D70E002C06FEF7FEFC50189
:100640000E9444044C01F32DF0683F2E820133FCDC
:100650001BC0822D90E088169906B0F4B60180E2A6
:1006600090E00E945A042A94F4CFF50137FC85915A
:1006700037FE81915F01B60190E00E945A0421107B
:100680002A9421E0821A91088114910471F7E8C03C
:10069000843611F0893641F5F80137FE07C06081D4
:1006A0007181828193810C5F1F4F08C060817181CD
:1006B000072E000C880B990B0E5F1F4FF32DFF7652
:1006C0003F2E97FF09C090958095709561957F4F5B
:1006D0008F4F9F4FF0683F2E2AE030E0A3010E9429
:1006E0009604882E861845C0853731F4232D2F7E39
:1006F000B22E2AE030E025C0932D997FB92E8F3697
:10070000C1F018F4883579F0B5C0803719F0883712
:1007100021F0B0C0E92FE061BE2EB4FE0DC0FB2D6C
:10072000F460BF2E09C034FE0AC0292F2660B22E05
:1007300006C028E030E005C020E130E002C020E142
:1007400032E0F801B7FE07C0608171818281938138
:100750000C5F1F4F06C06081718180E090E00E5FEA
:100760001F4FA3010E949604882E8618FB2DFF7749
:100770003F2E36FE0DC0232D2E7FA22E891458F455
:1007800034FE0BC032FC09C0832D8E7EA82E05C01E
:10079000B82CA32C03C0B82C01C0B92CA4FE0FC0E8
:1007A000FE01E80DF11D8081803321F49A2D997EA0
:1007B000A92E09C0A2FE06C0B394B39404C08A2D2A
:1007C000867809F0B394A3FC11C0A0FE06C0B21451
:1007D00088F4280C922C9B180EC0B21460F4B60159
:1007E00080E290E00E945A04B394F7CFB21418F458
:1007F0002B1802C0982C212CA4FE10C0B60180E357
:1008000090E00E945A04A2FE17C0A1FC03C088E732
:1008100090E002C088E590E0B6010CC08A2D867891
:1008200059F0A1FE02C08BE201C080E2A7FC8DE27C
:10083000B60190E00E945A04891438F4B60180E3AE
:1008400090E00E945A049A94F7CF8A94F301E80D3D
:10085000F11D8081B60190E00E945A048110F5CF0D
:10086000222009F442CEB60180E290E00E945A04B0
:100870002A94F6CFF6018681978102C08FEF9FEF11
:100880002B96E2E10C941005FC010590615070403C
:100890000110D8F7809590958E0F9F1F0895FC0149
:1008A0006150704001900110D8F7809590958E0F9F
:1008B0009F1F08950F931F93CF93DF93FB01238115
:1008C00021FD03C08FEF9FEF2CC022FF16C0468191
:1008D0005781248135814217530744F4A081B181A7
:1008E0009D012F5F3F4F318320838C932681378179
:1008F0002F5F3F4F3783268314C08B01EC01FB0130
:100900000084F185E02D0995892BE1F6D801169632
:100910008D919C911797019617969C938E9316979D
:10092000CE01DF91CF911F910F910895FA01AA276F
:10093000283051F1203181F1E8946F936E7F6E5F22
:100940007F4F8F4F9F4FAF4FB1E03ED0B4E03CD0D0
:10095000670F781F891F9A1FA11D680F791F8A1FB3
:10096000911DA11D6A0F711D811D911DA11D20D01A
:1009700009F468943F912AE0269F11243019305DD4
:100980003193DEF6CF010895462F4770405D4193C5
:10099000B3E00FD0C9F7F6CF462F4F70405D4A3312
:1009A00018F0495D31FD4052419302D0A9F7EACFDA
:1009B000B4E0A6959795879577956795BA95C9F709
:1009C00000976105710508959B01AC010A2E0694FC
:1009D0005795479537952795BA95C9F7620F731FB5
:1009E000841F951FA01D08952F923F924F925F92F2
:1009F0006F927F928F929F92AF92BF92CF92DF922F
:100A0000EF92FF920F931F93CF93DF93CDB7DEB793
:100A1000CA1BDB0B0FB6F894DEBF0FBECDBF099427
:100A20002A88398848885F846E847D848C849B847E
:100A3000AA84B984C884DF80EE80FD800C811B818C
:100A4000AA81B981CE0FD11D0FB6F894DEBF0FBEBB
:0A0A5000CDBFED010895F894FFCF2B
:100A5A00424A525A636A3B003800350032003A0073
:100A6A00370034003100436F756E7465723A2000A6
:080A7A00256900256C750000E0
:00000001FF
