:100000000C942A000C9427030C944B030C946F035C
:100010000C9447000C9447000C9447000C94470044
:100020000C9447000C9447000C9447000C94470034
:100030000C9447000C9447000C9447000C94470024
:100040000C9447000C9447000C9447000C94470014
:100050000C94470011241FBECFE5D8E0DEBFCDBF12
:1000600010E0A0E6B0E0EAE2F7E002C005900D92F1
:10007000A837B107D9F720E0A8E7B0E001C01D928A
:10008000AF37B207E1F70E94A7000C9493030C94DA
:100090000000809178008F5F8093780080917800D5
:1000A000843011F410927800609178008FEF93E023
:1000B0000E943E01089586E690E00E94C40085E615
:1000C00090E00E94C40080E690E00E94E302089560
:1000D00086E690E00E94EC00089585E690E00E949C
:1000E000EC00089586E690E00E94EC002FEF84E398
:1000F0009CE0215080409040E1F700C0000086E67F
:1001000090E00E9415012FEF84E39CE02150804095
:100110009040E1F700C0000085E690E00E94EC000E
:100120002FEF84E39CE0215080409040E1F700C035
:10013000000085E690E00E9415012FEF84E39CE02B
:10014000215080409040E1F700C00000089568E72A
:1001500070E08FEF93E00E9456010E945B00809157
:100160007800813019F40E946800F9CF80917800FE
:10017000823019F40E946D00F2CF809178008330B4
:1001800071F70E947200EBCFCF93DF931F92CDB730
:10019000DEB70097E1F0FC012081922F97708981F2
:1001A000887F892B922F92959F709770990F990F46
:1001B000990F877C892B27FB222720F9806420FB5D
:1001C00087F98983CE0101960E94E80101C080E091
:1001D0000F90DF91CF910895CF93DF931F92CDB70A
:1001E000DEB70097E9F0FC012081922F977089819A
:1001F000887F892B922F92959F709770990F990FF6
:10020000990F877C892B27FB222720F9806420FB0C
:1002100087F9898361E0CE0101960E94A80101C09F
:1002200080E00F90DF91CF910895CF93DF931F92DD
:10023000CDB7DEB70097E9F0FC012081922F9770CF
:100240008981887F892B922F92959F709770990F43
:10025000990F990F877C892B27FB222720F980642F
:1002600020FB87F9898360E0CE0101960E94A801F6
:1002700001C080E00F90DF91CF9108959C019FB75E
:10028000991F9927991FF894E199FECF07B600FCB2
:10029000FDCF3FBB2EBB6DBB8CB384608CBB8CB3DE
:1002A00082608CBB992309F07894089561157105DB
:1002B00061F0E199FECF9FBB8EBB8CB381608CBB9C
:1002C0008DB3FB01808381E0089580E00895FC01F7
:1002D000892BD1F12081269526952695277080813E
:1002E00086FB992790F986FF18C0913079F5E82FA1
:1002F000E770F0E0EE0FFF1FE159FF4F0190F08132
:10030000E02D308181E090E002C0880F991F2A958E
:10031000E2F7832B808381E00895E081E770F0E0CD
:10032000EE0FFF1FE159FF4F0190F081E02D30816A
:1003300081E090E002C0880F991F2A95E2F780952E
:100340008323808381E0089580E0089580E008950C
:100350000097D1F1DC012C912695269526952770E2
:10036000662319F06130C9F031C0DC01EC91E7700F
:10037000F0E0EE0FFF1FE959FF4F0190F081E02DF3
:10038000308181E090E002C0880F991F2A95E2F742
:1003900080958323808381E00895DC01EC91E770F0
:1003A000F0E0EE0FFF1FE959FF4F0190F081E02DC3
:1003B000308181E090E002C0880F991F2A95E2F712
:1003C000832B808381E0089580E0089580E0089584
:1003D000CF93DF93009761F0EC010E946701688181
:1003E00067FB662760F9CE010E94A80181E001C089
:1003F00080E0DF91CF9108950097D1F0FC018281D8
:10040000813051F018F0823069F014C078948BB7C5
:1004100080648BBF81E0089578948BB780688BBF30
:1004200081E0089578948BB780628BBF81E0089556
:1004300080E0089580E008950097B9F0FC01828182
:10044000813049F018F0823059F011C08BB78F7BA2
:100450008BBF81E008958BB78F778BBF81E00895C4
:100460008BB78F7D8BBF81E0089580E0089580E099
:100470000895009709F444C0FC0122812130D1F095
:1004800018F0223069F13EC0FC018381811108C05F
:1004900085B7826085BF85B78E7F85BF81E008956F
:1004A000813091F585B7826085BF85B7816085BF52
:1004B00081E00895FC018381811108C085B78860BF
:1004C00085BF85B78B7F85BF81E008958130F1F4CA
:1004D00085B7886085BF85B7846085BF81E0089552
:1004E000FC018381811105C084B78F7B84BF81E0CB
:1004F0000895813069F484B7806484BF81E00895F1
:1005000080E0089580E0089581E0089581E00895F5
:1005100081E00895009799F0FC018281813041F0DB
:1005200018F0823049F008958AB78F7B8ABF08950A
:100530008AB78F778ABF08958AB78F7D8ABF08955B
:10054000009731F090937E0080937D0081E00895C4
:1005500080E00895009731F090937C0080937B00B9
:1005600081E0089580E00895009731F090937A003B
:100570008093790081E0089580E008950097B9F0B4
:10058000FC018281813049F018F0823059F011C0AD
:10059000808191810E94A0020895808191810E94B2
:1005A000AA020895808191810E94B402089580E09A
:1005B000089580E00895009721F004960E94670155
:1005C000089580E008950F931F93CF930097C9F08B
:1005D0008C010E941C02C82FC8010E948A02C82BED
:1005E000C8010E943902C82BC8010E94DB02C82B37
:1005F000C8010E94BE02C82BC8010E94FC018C2BBE
:1006000001C080E0CF911F910F9108958AB78F7B31
:100610008ABFE0917D00F0917E00309709F0099546
:1006200008958AB78F778ABFE0917B00F0917C00B4
:10063000309709F0099508958AB78F7D8ABFE091B8
:100640007900F0917A00309709F0099508951F928A
:100650000F920FB60F9211242F933F934F935F93F6
:100660006F937F938F939F93AF93BF93EF93FF937A
:100670000E940603FF91EF91BF91AF919F918F91DF
:100680007F916F915F914F913F912F910F900FBE8E
:100690000F901F9018951F920F920FB60F92112472
:1006A0002F933F934F935F936F937F938F939F937A
:1006B000AF93BF93EF93FF930E941103FF91EF91CC
:1006C000BF91AF919F918F917F916F915F914F916A
:1006D0003F912F910F900FBE0F901F9018951F9272
:1006E0000F920FB60F9211242F933F934F935F9366
:1006F0006F937F938F939F93AF93BF93EF93FF93EA
:100700000E941C03FF91EF91BF91AF919F918F9138
:100710007F916F915F914F913F912F910F900FBEFD
:0A0720000F901F901895F894FFCF7A
:10072A00490000010112023B003800350032003A4C
:08073A0000370034003100001B
:00000001FF
