:100000000C942A000C9485020C94A9020C94CD0245
:100010000C9447000C9447000C9447000C94470044
:100020000C9447000C9447000C9447000C94470034
:100030000C9447000C9447000C9447000C94470024
:100040000C9447000C9447000C9447000C94470014
:100050000C94470011241FBECFE5D8E0DEBFCDBF12
:1000600010E0A0E6B0E0E6EEF5E002C005900D92EB
:10007000A238B107D9F720E0A2E8B0E001C01D9294
:10008000A838B207E1F70E9471000C94F1020C94B9
:10009000000082E690E00E949C00089581E690E0D6
:1000A0000E949C00089580E690E00E949C000895C4
:1000B00082E690E00E94740081E690E00E94740065
:1000C00080E690E00E9474008DE690E00E9441027C
:1000D00088E690E00E94410283E690E00E9441029F
:1000E00008950E945800FFCFCF93DF931F92CDB7A2
:1000F000DEB70097E1F0FC012081922F9770898193
:10010000887F892B922F92959F709770990F990FE6
:10011000990F877C892B27FB222720F9806420FBFD
:1001200087F98983CE0101960E94460101C080E0D3
:100130000F90DF91CF910895CF93DF931F92CDB7AA
:10014000DEB70097E9F0FC012081922F977089813A
:10015000887F892B922F92959F709770990F990F96
:10016000990F877C892B27FB222720F9806420FBAD
:1001700087F9898361E0CE0101960E94060101C0E2
:1001800080E00F90DF91CF910895FC01892BD1F190
:1001900020812695269526952770808186FB9927B4
:1001A00090F986FF18C0913079F5E82FE770F0E0FC
:1001B000EE0FFF1FE658FF4F0190F081E02D3081D8
:1001C00081E090E002C0880F991F2A95E2F7832B07
:1001D000808381E00895E081E770F0E0EE0FFF1F7B
:1001E000E658FF4F0190F081E02D308181E090E0F2
:1001F00002C0880F991F2A95E2F780958323808398
:1002000081E0089580E0089580E008950097D1F19D
:10021000DC012C912695269526952770662319F0EA
:100220006130C9F031C0DC01EC91E770F0E0EE0F15
:10023000FF1FEE58FF4F0190F081E02D308181E0EB
:1002400090E002C0880F991F2A95E2F780958323DA
:10025000808381E00895DC01EC91E770F0E0EE0F1F
:10026000FF1FEE58FF4F0190F081E02D308181E0BB
:1002700090E002C0880F991F2A95E2F7832B8083B4
:1002800081E0089580E0089580E00895CF93DF93A2
:10029000009761F0EC010E94C500688167FB66274A
:1002A00060F9CE010E94060181E001C080E0DF918B
:1002B000CF9108950097D1F0FC018281813051F0F7
:1002C00018F0823069F014C078948BB780648BBFCB
:1002D00081E0089578948BB780688BBF81E00895A2
:1002E00078948BB780628BBF81E0089580E0089599
:1002F00080E008950097B9F0FC018281813049F0D7
:1003000018F0823059F011C08BB78F7B8BBF81E022
:1003100008958BB78F778BBF81E008958BB78F7D62
:100320008BBF81E0089580E0089580E008950097F4
:1003300009F444C0FC0122812130D1F018F02230B0
:1003400069F13EC0FC018381811108C085B78260DC
:1003500085BF85B78E7F85BF81E00895813091F597
:1003600085B7826085BF85B7816085BF81E00895CC
:10037000FC018381811108C085B7886085BF85B77E
:100380008B7F85BF81E008958130F1F485B7886067
:1003900085BF85B7846085BF81E00895FC018381B6
:1003A000811105C084B78F7B84BF81E008958130BF
:1003B00069F484B7806484BF81E0089580E0089583
:1003C00080E0089581E0089581E0089581E0089536
:1003D000009799F0FC018281813041F018F0823061
:1003E00049F008958AB78F7B8ABF08958AB78F77BF
:1003F0008ABF08958AB78F7D8ABF0895009731F02C
:10040000909387008093860081E0089580E00895AE
:10041000009731F0909385008093840081E00895E7
:1004200080E00895009731F09093830080938200DC
:1004300081E0089580E008950097B9F0FC01828181
:10044000813049F018F0823059F011C080819181DB
:100450000E94FE010895808191810E940802089502
:10046000808191810E941202089580E0089580E0C9
:100470000895009721F004960E94C500089580E039
:1004800008950F931F93CF930097C9F08C010E949A
:100490007A01C82FC8010E94E801C82BC8010E9438
:1004A0009701C82BC8010E943902C82BC8010E94BD
:1004B0001C02C82BC8010E945A018C2B01C080E08D
:1004C000CF911F910F9108958AB78F7B8ABFE091DA
:1004D0008600F0918700309709F0099508958AB752
:1004E0008F778ABFE0918400F0918500309709F002
:1004F000099508958AB78F7D8ABFE0918200F091B7
:100500008300309709F0099508951F920F920FB656
:100510000F9211242F933F934F935F936F937F9389
:100520008F939F93AF93BF93EF93FF930E946402C7
:10053000FF91EF91BF91AF919F918F917F916F91BB
:100540005F914F913F912F910F900FBE0F901F9091
:1005500018951F920F920FB60F9211242F933F936D
:100560004F935F936F937F938F939F93AF93BF93BB
:10057000EF93FF930E946F02FF91EF91BF91AF91B4
:100580009F918F917F916F915F914F913F912F91AB
:100590000F900FBE0F901F9018951F920F920FB6DD
:1005A0000F9211242F933F934F935F936F937F93F9
:1005B0008F939F93AF93BF93EF93FF930E947A0221
:1005C000FF91EF91BF91AF919F918F917F916F912B
:1005D0005F914F913F912F910F900FBE0F901F9001
:0605E0001895F894FFCF0E
:1005E60022120253000201114E0001001B490000B5
:1005F60001133B003800350032003A003700340062
:020606003100C1
:00000001FF
