S00B00004156522E7372656330
S11300000C942A000C9478020C949C020C94C00268
S11300100C9447000C9447000C94E0030C940404E3
S11300200C9428040C944C040C9498030C94BC0376
S11300300C9474030C942C030C9447000C94080344
S11300400C94E4020C9447000C9447000C94500365
S11300500C94470011241FBECFE5D8E0DEBFCDBF0E
S113006010E0A0E6B0E0E6EDFFE002C005900D92DE
S1130070A838B107D9F720E0A8E8B0E001C01D9284
S1130080A43BB207E1F70E944E000C94E9070C94DC
S1130090000080E690E00E94D20008950E9449008A
S11300A026E730E041E061E080E690E00E947201E2
S11300B060EB70E0809188000E948F0120EB30E0BB
S11300C04AE061E080E690E00E947201809188003D
S11300D08F5F809388002FEF89E698E1215080405C
S11300E09040E1F700C00000E3CF0F931F93CF933C
S11300F00097E1F0C62F8C01617002960E94F8010E
S1130100C1FB662760F9C80103960E94F801C2FB8F
S1130110662760F9C80104960E94F801C3FB6627AC
S113012060F9C80105960E94F80101C080E0CF91F2
S11301301F910F910895CF93DF93009779F0EC010D
S1130140219661E0CE010E94F8018AE18A95F1F7D7
S113015000C060E0CE010E94F80101C080E0DF91A0
S1130160CF9108951F93CF93DF930097B1F0162F8B
S1130170EC0160E00E94F801612F62956F70CE017E
S11301800E947500CE010E949B00612FCE010E9447
S11301907500CE010E949B0001C080E0DF91CF91E9
S11301A01F9108951F93CF93DF93009709F450C0D4
S11301B0EC0101960E943802CE010E94380210E040
S11301C008C0812F90E002968C0F9D1F0E94380278
S11301D01F5F1430B0F32FEF89EF90E0215080407F
S11301E09040E1F700C0000068E3CE010E94B20035
S11301F08FE19EE40197F1F700C0000068E3CE01AF
S11302000E94B2009FEF22E587E091502040804099
S1130210E1F700C0000068E3CE010E94B20061E093
S1130220CE010E94B20062E0CE010E94B20066E0FC
S1130230CE010E94B2006CE0CE010E94B20068E2DE
S1130240CE010E94B20060E8CE010E94B20001C05B
S113025080E0DF91CF911F9108950097F9F062300B
S113026071F018F4613031F01BC0633069F0643010
S113027081F016C06FE7640F0E94B20008956FEB1F
S1130280640F0E94B200089563E9640F0E94B200F3
S1130290089563ED640F0E94B200089580E008950C
S11302A081E008951F93CF93DF930097B1F0162F49
S11302B0EC0161E00E94F801612F62956F70CE013C
S11302C00E947500CE010E949B00612FCE010E9406
S11302D07500CE010E949B0001C080E0DF91CF91A8
S11302E01F9108950F931F93CF93DF938C01E9011E
S11302F0009769F0209769F00E942D0104C02196AF
S1130300C8010E94520168816111F9CF03C080E0E5
S113031001C080E0DF91CF911F910F910895611585
S11303207105C1F0FB0194E0DB011D929A95E9F798
S11303301F928F9380E890E09F938F93FF936F9326
S11303400E94FF040F900F900F900F900F900F904A
S113035081E0089580E0089586B1806186B9E091D6
S11303608900F0918A00309709F009950895FC01FD
S1130370892BD1F120812695269526952770808199
S113038086FB992790F986FF18C0913079F5E82FFC
S1130390E770F0E0EE0FFF1FE259FF4F0190F0818C
S11303A0E02D308181E090E002C0880F991F2A95EA
S11303B0E2F7832B808381E00895E081E770F0E029
S11303C0EE0FFF1FE259FF4F0190F081E02D3081C5
S11303D081E090E002C0880F991F2A95E2F780958A
S11303E08323808381E0089580E0089580E0089568
S11303F00097D1F1DC012C9126952695269527703E
S1130400662319F06130C9F031C0DC01EC91E7706A
S1130410F0E0EE0FFF1FEA59FF4F0190F081E02D4D
S1130420308181E090E002C0880F991F2A95E2F79D
S113043080958323808381E00895DC01EC91E7704B
S1130440F0E0EE0FFF1FEA59FF4F0190F081E02D1D
S1130450308181E090E002C0880F991F2A95E2F76D
S1130460832B808381E0089580E0089580E00895DF
S1130470CF93DF93009761F0EC010E94B70168818C
S113048067FB662760F9CE010E94F80181E001C094
S113049080E0DF91CF91089586B7806886BFE091B0
S11304A08B00F0918C00309709F0099508958AB774
S11304B08F7B8ABFE0919100F0919200309709F010
S11304C0099508958AB78F778ABFE0918F00F091DC
S11304D09000309709F0099508958AB78F7D8ABFF7
S11304E0E0918D00F0918E00309709F00995089500
S11304F01F920F920FB60F9211242F933F934F9395
S11305005F936F937F938F939F93AF93BF93EF9377
S1130510FF930E945702FF91EF91BF91AF919F917A
S11305208F917F916F915F914F913F912F910F9098
S11305300FBE0F901F9018951F920F920FB60F9237
S113054011242F933F934F935F936F937F938F93D4
S11305509F93AF93BF93EF93FF930E946202FF9127
S1130560EF91BF91AF919F918F917F916F915F9127
S11305704F913F912F910F900FBE0F901F901895A0
S11305801F920F920FB60F9211242F933F934F9304
S11305905F936F937F938F939F93AF93BF93EF93E7
S11305A0FF930E946D02FF91EF91BF91AF919F91D4
S11305B08F917F916F915F914F913F912F910F9008
S11305C00FBE0F901F9018951F920F920FB60F92A7
S11305D011242F933F934F935F936F937F938F9344
S11305E09F93AF93BF93EF93FF930E94AC01FF914E
S11305F0EF91BF91AF919F918F917F916F915F9197
S11306004F913F912F910F900FBE0F901F9018950F
S11306101F920F920FB60F9211242F933F934F9373
S11306205F936F937F938F939F93AF93BF93EF9356
S1130630FF930E94DE04FF91EF91BF91AF919F91D0
S11306408F917F916F915F914F913F912F910F9077
S11306500FBE0F901F9018951F920F920FB60F9216
S113066011242F933F934F935F936F937F938F93B3
S11306709F93AF93BF93EF93FF930E94E904FF917D
S1130680EF91BF91AF919F918F917F916F915F9106
S11306904F913F912F910F900FBE0F901F9018957F
S11306A01F920F920FB60F9211242F933F934F93E3
S11306B05F936F937F938F939F93AF93BF93EF93C6
S11306C0FF930E944C02FF91EF91BF91AF919F91D4
S11306D08F917F916F915F914F913F912F910F90E7
S11306E00FBE0F901F9018951F920F920FB60F9286
S11306F011242F933F934F935F936F937F938F9323
S11307009F93AF93BF93EF93FF930E947004FF9165
S1130710EF91BF91AF919F918F917F916F915F9175
S11307204F913F912F910F900FBE0F901F901895EE
S11307301F920F920FB60F9211242F933F934F9352
S11307405F936F937F938F939F93AF93BF93EF9335
S1130750FF930E947B04FF91EF91BF91AF919F9112
S11307608F917F916F915F914F913F912F910F9056
S11307700FBE0F901F9018951F920F920FB60F92F5
S113078011242F933F934F935F936F937F938F9392
S11307909F93AF93BF93EF93FF930E948604FF91BF
S11307A0EF91BF91AF919F918F917F916F915F91E5
S11307B04F913F912F910F900FBE0F901F9018955E
S11307C01F920F920FB60F9211242F933F934F93C2
S11307D05F936F937F938F939F93AF93BF93EF93A5
S11307E0FF930E949404FF91EF91BF91AF919F9169
S11307F08F917F916F915F914F913F912F910F90C6
S11308000FBE0F901F9018951F920F920FB60F9264
S113081011242F933F934F935F936F937F938F9301
S11308209F93AF93BF93EF93FF930E94A904FF910B
S1130830EF91BF91AF919F918F917F916F915F9154
S11308404F913F912F910F900FBE0F901F901895CD
S11308501F920F920FB60F9211242F933F934F9331
S11308605F936F937F938F939F93AF93BF93EF9314
S1130870FF930E94BE04FF91EF91BF91AF919F91AE
S11308808F917F916F915F914F913F912F910F9035
S11308900FBE0F901F9018951F920F920FB60F92D4
S11308A011242F933F934F935F936F937F938F9371
S11308B09F93AF93BF93EF93FF930E94D304FF9151
S11308C0EF91BF91AF919F918F917F916F915F91C4
S11308D04F913F912F910F900FBE0F901F9018953D
S11308E08EB18F778EB9E0919300F0919400309798
S11308F009F00995089588B7826088BFE09198004F
S1130900F0919900309709F00995089588B78160AE
S113091088BF8091950082BFE0919600F091970086
S1130920309709F00995089588B7806288BF80914F
S11309309E0090919F0097BD80919E0090919F0092
S113094086BDE091A600F091A700309709F00995C3
S1130950089588B7806188BF80919C0090919D0024
S11309609BBD80919C0090919D008ABDE091A40064
S1130970F091A500309709F00995089588B788602B
S113098088BF80919A0090919B0099BD80919A00B4
S113099090919B0088BDE091A200F091A300309754
S11309A009F00995089588B7846088BFE091A00094
S11309B0F091A100309709F0099508958AB18F7BD1
S11309C08AB9E091AE00F091AF00309709F0099533
S11309D00895E091AC00F091AD00309709F00995CD
S11309E0E091AA00F091AB00309709F00995E091ED
S11309F0A800F091A900309709F009950895AEE098
S1130A00B0E0E5E0F5E00C94C0070D891E8986E0AE
S1130A108C831A8309838FEF9FE79E838D83AE01B6
S1130A20475E5F4F6F89788DCE0101960E94210544
S1130A30EF81F885E00FF11F10822E96E4E00C940C
S1130A40DC07ABE0B0E0E7E2F5E00C94B2076C0140
S1130A507B018A01FC0117821682838181FFCCC14C
S1130A60CE0101963C01F6019381F70193FD859136
S1130A7093FF81917F01882309F4BAC1853239F447
S1130A8093FD859193FF81917F01853229F4B6010D
S1130A9090E00E941807E7CF912C212C312CFFE124
S1130AA0F315D8F08B3279F038F4803279F0833250
S1130AB0A1F4232D20611DC08D3261F0803369F4CF
S1130AC0232D216016C0832D8260382EE32DE4602F
S1130AD03E2E2AC0F32DF8601DC037FC2DC020ED3A
S1130AE0280F2A3040F08E32B9F436FC81C1232D10
S1130AF02064322E19C036FE06C08AE0989E200D6E
S1130B001124922E11C0EAE02E9E200D1124222ED3
S1130B10F32DF0623F2E08C08C3621F4832D8068BB
S1130B20382E02C0883641F4F70193FD859193FF76
S1130B3081917F018111B3CF982F9F7D955493307C
S1130B4028F40C5F1F4F9FE399830DC0833631F067
S1130B50833771F0833509F059C021C0F8018081D1
S1130B6089830E5F1F4F88248394912C530113C0F3
S1130B702801F2E04F0E511CF801A080B18036FE2E
S1130B8003C0692D70E002C06FEF7FEFC5010E94C2
S1130B900D074C018201F32DFF773F2E16C028016B
S1130BA022E0420E511CF801A080B18036FE03C041
S1130BB0692D70E002C06FEF7FEFC5010E9402074C
S1130BC04C01F32DF0683F2E820133FC1BC0822DB3
S1130BD090E088169906B0F4B60180E290E00E9495
S1130BE018072A94F4CFF50137FC859137FE8191DB
S1130BF05F01B60190E00E94180721102A9421E0B9
S1130C00821A91088114910471F7E8C0843611F0B6
S1130C10893641F5F80137FE07C060817181828110
S1130C2093810C5F1F4F08C060817181072E000CF7
S1130C30880B990B0E5F1F4FF32DFF763F2E97FF06
S1130C4009C090958095709561957F4F8F4F9F4F08
S1130C50F0683F2E2AE030E0A3010E945407882E5A
S1130C60861845C0853731F4232D2F7EB22E2AE015
S1130C7030E025C0932D997FB92E8F36C1F018F43A
S1130C80883579F0B5C0803719F0883721F0B0C0C5
S1130C90E92FE061BE2EB4FE0DC0FB2DF460BF2E23
S1130CA009C034FE0AC0292F2660B22E06C028E0EF
S1130CB030E005C020E130E002C020E132E0F8017C
S1130CC0B7FE07C060817181828193810C5F1F4FE1
S1130CD006C06081718180E090E00E5F1F4FA30128
S1130CE00E945407882E8618FB2DFF773F2E36FE70
S1130CF00DC0232D2E7FA22E891458F434FE0BC070
S1130D0032FC09C0832D8E7EA82E05C0B82CA32CDE
S1130D1003C0B82C01C0B92CA4FE0FC0FE01E80D1D
S1130D20F11D8081803321F49A2D997EA92E09C06A
S1130D30A2FE06C0B394B39404C08A2D867809F049
S1130D40B394A3FC11C0A0FE06C0B21488F4280C0E
S1130D50922C9B180EC0B21460F4B60180E290E0AD
S1130D600E941807B394F7CFB21418F42B1802C0DA
S1130D70982C212CA4FE10C0B60180E390E00E94C0
S1130D801807A2FE17C0A1FC03C088E790E002C0C8
S1130D9088E590E0B6010CC08A2D867859F0A1FE52
S1130DA002C08BE201C080E2A7FC8DE2B60190E0B4
S1130DB00E941807891438F4B60180E390E00E9479
S1130DC018079A94F7CF8A94F301E80DF11D8081F6
S1130DD0B60190E00E9418078110F5CF222009F493
S1130DE042CEB60180E290E00E9418072A94F6CF22
S1130DF0F6018681978102C08FEF9FEF2B96E2E187
S1130E000C94CE07FC010590615070400110D8F796
S1130E10809590958E0F9F1F0895FC01615070403E
S1130E2001900110D8F7809590958E0F9F1F08951B
S1130E300F931F93CF93DF93FB01238121FD03C005
S1130E408FEF9FEF2CC022FF16C04681578124816B
S1130E5035814217530744F4A081B1819D012F5F6E
S1130E603F4F318320838C93268137812F5F3F4FFF
S1130E703783268314C08B01EC01FB010084F185C8
S1130E80E02D0995892BE1F6D80116968D919C9158
S1130E901797019617969C938E931697CE01DF9120
S1130EA0CF911F910F910895FA01AA27283051F18B
S1130EB0203181F1E8946F936E7F6E5F7F4F8F4F87
S1130EC09F4FAF4FB1E03ED0B4E03CD0670F781FE6
S1130ED0891F9A1FA11D680F791F8A1F911DA11DCB
S1130EE06A0F711D811D911DA11D20D009F4689404
S1130EF03F912AE0269F11243019305D3193DEF6AC
S1130F00CF010895462F4770405D4193B3E00FD061
S1130F10C9F7F6CF462F4F70405D4A3318F0495D4C
S1130F2031FD4052419302D0A9F7EACFB4E0A6952F
S1130F309795879577956795BA95C9F70097610551
S1130F40710508959B01AC010A2E069457954795A7
S1130F5037952795BA95C9F7620F731F841F951F9C
S1130F60A01D08952F923F924F925F926F927F92AD
S1130F708F929F92AF92BF92CF92DF92EF92FF92A5
S1130F800F931F93CF93DF93CDB7DEB7CA1BDB0B51
S1130F900FB6F894DEBF0FBECDBF09942A883988F6
S1130FA048885F846E847D848C849B84AA84B984FD
S1130FB0C884DF80EE80FD800C811B81AA81B98109
S1130FC0CE0FD11D0FB6F894DEBF0FBECDBFED011D
S1090FD00895F894FFCF20
S1130FD6424A525A626A3B003800350032003A00EF
S1130FE6370034003100436F756E7465723A200021
S10B0FF6256900256C7500005B
S9030000FC
